:020000040000FA
:1000000002090CEFB40A07740D12000E740A30983E
:1000100011A899B8130CC2983098FDA899C298B845
:0A00200011F63099FDC299F59922FE
:10002B00020998AF15020DC2020875AD07AC061296
:10003B000E03AB07AA06120E03C3EF9BFFEE9AFE4D
:10004B00C3EF9DEE9C40EF22020A52E47E06FDFCBC
:10005B00AB55AA54A953A852C30205F9E47E05FD7A
:07006B00FCA852D30205F9C5
:10007300020DA4E548243CF8E60548227839300708
:1000830002783CE475F0011206A20204C82000EBDA
:100093007F2ED2008018EF540F2490D43440D4FF25
:1000A30030040BEF24BFB41A0050032461FFE54969
:1000B30060021549054CE54C7002054B30070D787D
:1000C30039E475F0011206A2EF02069002000374F0
:1000D30003D2078003E4C207F5488B398A3A893B88
:1000E300E4F549F54BF54CE54960077F201200B173
:1000F30080F5754AFFC201C200C202C203C205C233
:1001030006C20812007FFF700D3007057F00120042
:10011300C2AF4CAE4B22B4255FC2D5C20412007FDE
:10012300FF24D0B40A00501A75F00A784930D50577
:1001330008B6FF0106C6A426F620D5047002D20332
:1001430080D924CFB41A00EF5004C2E5D2040202CE
:10015300C2D20180C6D20080C0D20280BCD2D58078
:10016300BAD20580B47F201200B12002077401B512
:10017300490040F1120076FF1200B10200EAD208F2
:10018300D2068095120076FB120076FA120076F9F9
:100193004A4B700679937A037BFF20022EE5496070
:1001A3002A7E008E8275830012066360060EEE655A
:1001B3004A70F0C2D5EBC0E0EAC0E0E9C0E0EE125D
:1001C3000309D0E0F9D0E0FAD0E0FB1204C8FF60E5
:1001D300AAEBC0E0EAC0E0E9C0E01200B1D0E0243D
:1001E30001F9D0E03400FAD0E0FBE54A0460DCD545
:1001F3004AD980877BFF7A037905D202809C7910E4
:1002030080027908C206C2088008D2D5790A800420
:10021300790AC2D5E54A047002F54AE4FAFDFEFF05
:10022300120076FC7B08200113120076FD7B103050
:10023300000A120076FE120076FF7B20EC3382D593
:1002430092D55013C3E43000069FFFE49EFEE420E2
:1002530001039DFDE49CFCE4CBF8C201EC700CCFE0
:10026300CECDCCE824F8F870F38017C3EF33FFEE5C
:1002730033FEED33FDEC33FCEB33FB994002FB0F14
:10028300D8E9EB300105F8D0E0C448B201C0E00A78
:10029300EC4D4E4F78207B0070C2EAB54A0040BC5B
:1002A300C0E012030BD0F0D0E0200104C4C0E0C4CE
:1002B300B201C0F012009AD0F0D5F0EB0200EA12BE
:1002C30006B201875302015801584C0154420205FA
:1002D3004F020D44020D49016D4302135501F746C8
:1002E30001F74501F74703B350015C2D01602E016F
:1002F300832B016423018120039C2A011C480000F5
:10030300017B3F3F3F00790AA2D520031430050942
:10031300B910020404B9080104A2D5200602500151
:10032300042002689202B549005034C0E07F2030B7
:1003330003197F30A20272067205500F120362C2C4
:1003430002C206C205C2087F30800F300503E9C030
:10035300E01200B1300503D0E0F9D0E0B549CC306C
:1003630005177F30B9100C1200B17F583004077F96
:10037300788003B908031200B13002057F2D020013
:10038300B17F202008F87F2B2006F322920280CF32
:10039300286E756C6C2900D2011200763001F8C208
:1003A30001784930D50108F602011C2D5043495804
:1003B3001200762403B405004001E49003AE9312C7
:1003C30000A2743A1200A2D203754904020201E7A3
:1003D30009F608DFFA8046E709F208DFFA803E886B
:1003E300828C83E709F0A3DFFA8032E309F608DFA2
:1003F300FA8078E309F208DFFA807088828C83E35D
:1004030009F0A3DFFA806489828A83E0A3F608DF18
:10041300FA805889828A83E0A3F208DFFA804C804D
:10042300D280FA80C680D4806980F28033801080C5
:10043300A680EA809A80A880DA80E280CA80338925
:10044300828A83ECFAE493A3C8C582C8CCC583CC63
:10045300F0A3C8C582C8CCC583CCDFE9DEE7800D35
:1004630089828A83E493A3F608DFF9ECFAA9F0ED15
:10047300FB2289828A83ECFAE0A3C8C582C8CCC573
:1004830083CCF0A3C8C582C8CCC583CCDFEADEE841
:1004930080DB89828A83E493A3F208DFF980CC8826
:1004A300F0EF60010E4E60C388F0ED2402B4040047
:1004B30050B9F582EB2402B4040050AF23234582E4
:1004C3002390042273BB010689828A83E0225002AF
:1004D300E722BBFE02E32289828A83E49322BB01E3
:1004E3000A89828A83E0F5F0A3E022500687F009A7
:1004F300E71922BBFE07E3F5F009E3192289828A93
:1005030083E493F5F074019322BB010A89828A8301
:10051300F0E5F0A3F0225006F709A7F01922BBFE7D
:1005230006F3E5F009F3192275F008758200EF2F41
:10053300FFEE33FECD33CDCC33CCC58233C5829BA6
:10054300ED9AEC99E58298400CF582EE9BFEED9ACC
:10055300FDEC99FC0FD5F0D6E4CEFBE4CDFAE4CC68
:10056300F9A88222B800C1B90059BA002DEC8BF06A
:1005730084CFCECDFCE5F0CBF97818EF2FFFEE3327
:10058300FEED33FDEC33FCEB33FB10D70399400452
:10059300EB99FB0FD8E5E4F9FA227818EF2FFFEE79
:1005A30033FEED33FDEC33FCC933C910D7059BE9AA
:1005B3009A4007EC9BFCE99AF90FD8E0E4C9FAE406
:1005C300CCFB2275F010EF2FFFEE33FEED33FDCCA5
:1005D30033CCC833C810D7079BEC9AE899400AED8F
:1005E3009BFDEC9AFCE899F80FD5F0DAE4CDFBE437
:1005F300CCFAE4C8F922EB9FF5F0EA9E42F0E99DBC
:1006030042F0E89C45F022EC8EF0A4CCC5F0CCCDB2
:10061300F8EFA4CEC5F02DFDE43CFCE8A42EC8C53C
:10062300F03DFDE43CFCEFA4FFE5F028FEE43DFDD6
:10063300E43CFC22EF4E6012EF60010EEDBB010BB8
:1006430089828A83F0A3DFFCDEFA2289F05007F760
:1006530009DFFCA9F022BBFEFCF309DFFCA9F022B1
:10066300BB010CE58229F582E5833AF583E022504C
:1006730006E92582F8E622BBFE06E92582F8E22296
:10068300E58229F582E5833AF583E49322BB0106EB
:1006930089828A83F0225002F722BBFE01F322FAF9
:1006A300E6FB0808E6F925F0F618E6CA3AF622D082
:1006B30083D082F8E4937012740193700DA3A39313
:1006C300F8740193F5828883E4737402936860EF8E
:1006D300A3A3A380DF8F558E548D538C52E4FFFE6A
:1006E300120059400FE47F4EFE12006A5006755601
:1006F300010207B8E47FC47E0A1200594010E47F68
:100703005A7E0B12006A50067556020207B8E47F40
:100713009A7E091200594010E47F307E0A12006A63
:1007230050067556030207B87F27120056400FE4A0
:100733007FBD7E0612006A50057556048077E47FFC
:10074300717E07120059400FE47F077E0812006A8A
:100753005005755605805EE47F7C7E081200594083
:100763000FE47F127E0912006A5005755606804514
:100773007FBE120056400FE47F547E0712006A507A
:1007830005755607802FE47F4E7E05120059400CF5
:100793007FE412006750057556088019E47F8B7E4D
:1007A30004120059400C7F21120067500575560949
:1007B3008003E4F556AF56228F398D3A8B3BAB3C21
:1007C300AA3DA93E1204C87003020874F53FC3642E
:1007D3008094A04009D3E53F648094FE4003753FB5
:1007E30020E53AD3947840028073AF3FEF3395E02E
:1007F300FE75F064E53BA42FF582E5F03EF583E555
:10080300822442F582E583340EF583E493F9E53AD5
:10081300131313541F2539FDF8C000E6FA08E6FB4D
:10082300E53A120C1C8005CEC313CE13D8F9F4FF9E
:10083300EEF45AFEEB5FD000A60608F6A805C0004A
:10084300E6FA08E6FBE9FEE4A804088005CEC31334
:10085300CE13D8F9120C26D000A60608F67401258B
:100863003EF53EE4353DF53D7406253AF53A02077B
:10087300C122C0E0C0F0C083C082C0D075D000C028
:1008830000C001C002C003C004C005C006C0078584
:10089300A75775A700E5F854F0FFF4440F52F8EF9B
:1008A30030E748E508602C300A13850C82850B83FA
:1008B300E5A3F0050CE50C7007050B800385A35831
:1008C300D5080D300C05300902D2FA120D3680031B
:1008D30085080AE509601430F911300B09A80DE207
:1008E300F5A3050D800375A30015098557A7D00748
:1008F300D006D005D004D003D002D001D000D0D090
:10090300D082D083D0F0D0E032787FE4F6D8FD7582
:10091300816E020953020AF2E493A3F8E493A3401D
:1009230003F68001F208DFF48029E493A3F8540767
:10093300240CC8C333C4540F4420C8834004F45662
:10094300800146F6DFE4800B01020408102040809A
:10095300900C72E47E019360BCA3FF543F30E50921
:10096300541FFEE493A360010ECF54C025E060A89A
:1009730040B8E493A3FAE493A3F8E493A3C8C5822D
:10098300C8CAC583CAF0A3C8C582C8CAC583CADF9B
:10099300E9DEE780BEC0E0C0F0C083C082C0D0758E
:1009A300D000C000C001C002C003C004C005C0061F
:1009B300C00753C87F53C8FBE50EB40112750E027E
:1009C3007F00850F5D7B02E4FDFC120AA6800AE529
:1009D3000EB40305C281750E00D007D006D005D032
:1009E30004D003D002D001D000D0D0D082D083D0A5
:1009F300F0D0E032753CFF753D0D753E8285153FA5
:100A03007B007A0079241200D2E4F5387F5F120D5F
:100A1300707B007A007924120DF7C374809FFFE482
:100A23009400C313EF13FD7F5F753C00753D0075A4
:100A33003E24AB381207BBE538243CFF7B007A0029
:100A4300795F120BA20538E538C3940840BE22C073
:100A5300E0C0F0C083C082C0D075D000C000C00128
:100A6300C002C003C004C005C006C007C2EDAFBDCD
:100A7300AEBE7C0C7DE412060AE47BFF7A03F9F830
:100A83001205671206D88F14D007D006D005D004FC
:100A9300D003D002D001D000D0D0D082D083D0F008
:100AA300D0E032855D08855D09855D0A8F0D8C0B6D
:100AB3008D0CEB13920AEBA2E1920BAFA7E4F5A71F
:100AC300200D03120D9385A35E53F80F300C0530F0
:100AD3000902C2FA30F915E5096011300B09A80DB6
:100AE300E2F5A3050D8003E4F5A315098FA72212F0
:100AF3000B68C291D2AF120DD0120E4C120E038EA0
:100B0300228F23758701120E03C3EF9523FFEE9502
:100B130022FEC3EF940AEE940040E8120E038E22E5
:100B23008F23120BDC12002E80D98F258D26E5260C
:100B330060057526FF8003E4F5267F80120CCD8FB8
:100B430027E52504FF120CA18F28E4FF74292FF851
:100B5300A6260FBF10F6E4F539F53AFB7A0079279C
:100B63007D14020C4185A724120DEB120CEE120E1C
:100B730052120E3E120E0E120E56120E18120E2C9A
:100B8300120E35120E5A120DB4120D08120E221245
:100B93000D5E120E5E120DDE120E458524A7228F06
:100BA300398B3A8A3B893C7F80120CCD8F3DE539E6
:100BB30004FF120CA18F3E783F7C007D00AB3AAA64
:100BC3003BA93C7E007F101204A2E4F54FF550FBD5
:100BD3007A00793D7D14020C41AF14BF020BE51579
:100BE300C394FF50100515800CBF0409E515D39479
:100BF30000400215151209F7209210E4F5151209A9
:100C0300F712002E780076A575EF1222EFA4FFED00
:100C13007A002FFFEA35F0FE225407FCE47EFFA89A
:100C2300040822FFEA4EFEEB4F22131313541FFF57
:100C3300EDC39F22A60608F6740829F90D22E50ED6
:100C430070FC750E018D0FAF057E00C002C00178E8
:100C5300007C007DFED001D0021204A2AFA7E4F510
:100C6300A775CDFF75CCF4D28143C8048FA72201A9
:100C73001400011540C109C10CC10DC10AC10B010A
:100C83000800010900010A00010D00020B00000128
:100C93000E00010F00021000000212000000EF54CA
:100CA3000FC454F0FEEF54F0C4540F4EFF543325D9
:100CB300E025E0FEEF54CC1313543F4EFF5455256B
:100CC300E0FEEF54AAC3134EFF228F51120E03C34B
:100CD300EF9513FDEE9512FCD3ED94C8EC94004010
:100CE300074351408E128F13AF5122E5D85440FF72
:100CF300E5DF5480FE53D8BF53DF7F75DA42EF42FE
:100D0300D8EE42DF22E59154045391FB7595F875B3
:100D130094067593F8759206439104429122E4FF79
:100D2300FE1204C8600C0FEF70010E09E970F20A9D
:100D330080EF22750E03AFA7E4F5A775CDFF75CC41
:100D4300FC43C8048FA722E4F524E4FDAF24120B6F
:100D53002D0524E524C3948040F02275960C7597E5
:100D630039E4F5C4F5C353E8F843E8812290001051
:100D73007A00A9077B007D00AE83AF82020637426B
:100D830072696768746E6573733A20253362750000
:100D9300E5A1A2E6920CE5F8540C24FF9209D20DCA
:100DA30022C0E053917F0511E51170020510D0E0D8
:100DB30032AF88758800758C01758A018F8822EFA0
:100DC300700453DABF22C374FF9FF5FC22C281D2A1
:100DD300A77F0A7E00120036020D4A75A20B43A1BB
:100DE3004053F8F343F80122E4F5A753D9BFF5D9EB
:100DF30043D84022120D21EF75F006A42402FF22EE
:100E030053E67FAF11AE1043E6802275A50375F25A
:100E1300EF75D5102275E34075E10275E201227585
:100E23008E027589024388102243B280E5B230E610
:100E3300FB22E4F5A9E5A930E7FB2275A44275D4AA
:100E43003F2275E68875A860227515400209F7757B
:100E5300C9102275A6802275B6402275D1082200DA
:100E630020505020C060601040000000000000705F
:100E73002070F810F830F87070000008008070706F
:100E830070F070E0F8F8708870388880888870F0A7
:100E930070F078F88888888888F87000702000409F
:100EA30000800008003000802010806000000000F7
:100EB300000000400000000000003020600000003F
:100EC3000000000020505078C890202020202000EF
:100ED30000000088608810308040088888606010B7
:100EE30000408808888888908080888820109080B7
:100EF300D8888888888880208888888888084000DF
:100F030010500020008000080048788000008020F6
:100F1300000000000000004000000000000040202E
:100F230010400000000000002050F88010A0404056
:100F330010A820000000089820082050F080108896
:100F430088606020F82008088888808880808088EE
:100F53002010A080A8C88888888880208888885026
:100F6300881040801088001070B07068704088B09E
:100F730060309020D0B070F068B070E088888888C6
:100F830088F8402010A800000000000020005070E6
:100F9300204000401070F800F80010A820101090B6
:100FA30008F02070780000400010106888F08088F6
:100FB300F0F0B8F82010C080A8A888F088F070205E
:100FC3008888A820502040401000000008C880985E
:100FD30088E088C82010A020A8C8888898C88040C6
:100FE30088888850881080200810000000000000C6
:100FF3000000F80840A8004010A82060000020C8A6
:10100300202008F80888408808606020F82020A87D
:10101300F8888088808088882010A08088988880BD
:10102300A8A008208888A850204040201000000075
:1010330078888088F84078882010C020A88888F0B5
:10104300788070408888A820782040201000000015
:1010530000000000000050F0989000202020202085
:1010630000604088204088108888408810602010E5
:10107300004000A88888889080808888209090808D
:1010830088888880909008208850A8882080401005
:101093001000000088888888804008882090A0205D
:1010A30088888880088008489850A85008404020C5
:1010B30010000000000000002000502018680010FD
:1010C300400000400060807070F8701070704070D5
:1010D300600040080080207088F070E0F88070881D
:1010E300706088F8888870806888F0207020508845
:1010F30020F870087000FC0078F0707870407088F9
:1011030070609070888870800880F0306820508804
:1011130070F83020600000000000000000000000B4
:1011230000000000000000000000000000000000BC
:1011330000000000000000000000000000000000AC
:10114300000000000000000000000000000000009C
:10115300000000000000000000000000000000008C
:10116300000000000000000000000000000000007C
:0F1173000000000000000000000000000000006D
:00000001FF
