:020000040000FA
:1000000002073475F003A424CDF9740335F0FA7BAC
:10001000FF780B7C007D007E007F03020166E49385
:09002000FB740193FA74029322AF
:10002B000207C0E50E90040093131313541FF5231E
:10003B0078247C007D007B007A00790B12001785F9
:10004B002327120B14050E22020875AD07AC0612FE
:10005B000C4CAB07AA06120C4CC3EF9BFFEE9AFE9F
:10006B00C3EF9DEE9C40EF22020BD4E47E06FDFC19
:10007B00AB40AA3FA93EA83DC3020324E47E05FD85
:07008B00FCA83DD302032491
:1000930002069DE709F608DFFA8046E709F208DF62
:1000A300FA803E88828C83E709F0A3DFFA8032E38B
:1000B30009F608DFFA8078E309F208DFFA8070882E
:1000C300828C83E309F0A3DFFA806489828A83E068
:1000D300A3F608DFFA805889828A83E0A3F208DF57
:1000E300FA804C80D280FA80C680D4806980F28006
:1000F30033801080A680EA809A80A880DA80E2802C
:10010300CA803389828A83ECFAE493A3C8C582C880
:10011300CCC583CCF0A3C8C582C8CCC583CCDFE9EA
:10012300DEE7800D89828A83E493A3F608DFF9EC86
:10013300FAA9F0EDFB2289828A83ECFAE0A3C8C511
:1001430082C8CCC583CCF0A3C8C582C8CCC583CC38
:10015300DFEADEE880DB89828A83E493A3F208DFA7
:10016300F980CC88F0EF60010E4E60C388F0ED2477
:1001730002B4040050B9F582EB2402B4040050AF7A
:1001830023234582239000E673BB010689828A8379
:10019300E0225002E722BBFE02E32289828A83E443
:1001A3009322EF8DF0A4A8F0CF8CF0A428CE8DF08D
:1001B300A42EFE22BC000BBE0029EF8DF084FFAD00
:1001C300F022E4CCF875F008EF2FFFEE33FEEC33AA
:1001D300FCEE9DEC984005FCEE9DFE0FD5F0E9E4A6
:1001E300CEFD22EDF8F5F0EE8420D21CFEADF075C5
:1001F300F008EF2FFFED33FD4007985006D5F0F2DE
:1002030022C398FD0FD5F0EA22BB010A89828A83B3
:10021300E0F5F0A3E022500687F009E71922BBFEC0
:1002230007E3F5F009E3192289828A83E493F5F061
:1002330074019322BB010A89828A83F0E5F0A3F05B
:10024300225006F709A7F01922BBFE06F3E5F009D1
:10025300F3192275F008758200EF2FFFEE33FECD00
:1002630033CDCC33CCC58233C5829BED9AEC99E573
:100273008298400CF582EE9BFEED9AFDEC99FC0F03
:10028300D5F0D6E4CEFBE4CDFAE4CCF9A88222B8CB
:1002930000C1B90059BA002DEC8BF084CFCECDFC50
:1002A300E5F0CBF97818EF2FFFEE33FEED33FDECDD
:1002B30033FCEB33FB10D703994004EB99FB0FD8C6
:1002C300E5E4F9FA227818EF2FFFEE33FEED33FD64
:1002D300EC33FCC933C910D7059BE99A4007EC9B63
:1002E300FCE99AF90FD8E0E4C9FAE4CCFB2275F0F3
:1002F30010EF2FFFEE33FEED33FDCC33CCC833C804
:1003030010D7079BEC9AE899400AED9BFDEC9AFC09
:10031300E899F80FD5F0DAE4CDFBE4CCFAE4C8F9B8
:1003230022EB9FF5F0EA9E42F0E99D42F0E89C45FE
:10033300F022EC8EF0A4CCC5F0CCCDF8EFA4CEC562
:10034300F02DFDE43CFCE8A42EC8C5F03DFDE43CE3
:10035300FCEFA4FFE5F028FEE43DFDE43CFC22EFC6
:100363004E6012EF60010EEDBB010B89828A83F0B0
:10037300A3DFFCDEFA2289F05007F709DFFCA9F0BE
:1003830022BBFEFCF309DFFCA9F0222052656420A6
:10039300200059656C6C6F770020426C75652000F6
:1003A30056696F6C6574004F72616E6765005768BC
:1003B3006974652000477265656E2000496E646943
:1003C300676F004C6F6164657200FF0000FFFF0000
:1003D3000000FF800080FFA500FFFFFF0080004BAF
:1003E3000082FF038EFF0395FF039CFF03A3FF031C
:1003F300AAFF03B1FF03B8FF03BFFF03C6DDDDDCC4
:10040300DAD8D5D2CECAC5C0BBB5AFA9A29C958E4A
:1004130088817A746D67615B554F4A45403B37323B
:100423002E2A2723201D1A181513110F0D0B0A0846
:10043300070605040302020101000000000000009A
:100443000000010102020304050607080A0B0D0F51
:10045300111315181A1D2023272A2E32373B404526
:100463004A4F555B61676D747A81888E959CA2A90A
:10047300AFB5BBC0C5CACED2D5D8DADCDDDDDDDC95
:10048300DAD8D5D2CECAC5C0BBB5AFA9A29C958ECA
:1004930088817A746D67615B554F4A45403B3732BB
:1004A3002E2A2723201D1A181513110F0D0B0A08C6
:1004B300070605040302020101000000000000001A
:1004C3000000010102020304050607080A0B0D0FD1
:1004D300111315181A1D2023272A2E32373B4045A6
:1004E3004A4F555B61676D747A81888E959CA2A98A
:1004F300AFB5BBC0C5CACED2D5D8DADCDD8F408E4E
:100503003F8D3E8C3DE4FFFE120079400FE47F4EA9
:10051300FE12008A50067541010205E0E47FC47EA5
:100523000A1200794010E47F5A7E0B12008A5006AB
:100533007541020205E0E47F9A7E091200794010BA
:10054300E47F307E0A12008A50067541030205E0FB
:100553007F27120076400FE47FBD7E0612008A508B
:10056300057541048077E47F717E07120079400F9F
:10057300E47F077E0812008A5005754105805EE41A
:100583007F7C7E08120079400FE47F127E091200FF
:100593008A500575410680457FBE120076400FE400
:1005A3007F547E0712008A5005754107802FE47F30
:1005B3004E7E05120079400C7FE4120087500575CA
:1005C30041088019E47F8B7E04120079400C7F215F
:1005D30012008750057541098003E4F541AF4122BC
:1005E3008F248D258B26AB27AA28A92912018C706D
:1005F3000302069CF52AC3648094A04009D3E52A2C
:10060300648094FE4003752A20E525D39478400244
:100613008073AF2AEF3395E0FE75F064E526A42FCF
:10062300F582E5F03EF583E58224B1F582E5833476
:100633000CF583E493F9E525131313541F2524FDC7
:10064300F8C000E6FA08E6FBE525120A4D8005CE60
:10065300C313CE13D8F9F4FFEEF45AFEEB5FD000C8
:10066300A60608F6A805C000E6FA08E6FBE9FEE4DC
:10067300A804088005CEC313CE13D8F9120A57D0A5
:1006830000A60608F674012529F529E43528F5287E
:1006930074062525F5250205E922C0E0C0F0C083D4
:1006A300C082C0D075D000C000C001C002C003C06A
:1006B30004C005C006C00785A74275A700E5B0546E
:1006C300F0FFF4440F52B0EF30E748E50F602C30F1
:1006D3000113851382851283E586F00513E51370F4
:1006E3000705128003858643D50F0D3003053000BF
:1006F30002D2B2120C1B8003850F11E51060143077
:10070300B111300209A814E2F58605148003758639
:100713000015108542A7D007D006D005D004D0031A
:10072300D002D001D000D0D0D082D083D0F0D0E09E
:1007330032787FE4F6D8FD75815902077B020A07F8
:10074300E493A3F8E493A34003F68001F208DFF4F3
:100753008029E493A3F85407240CC8C333C4540F6B
:100763004420C8834004F456800146F6DFE4800B3E
:100773000102040810204080900955E47E01936033
:10078300BCA3FF543F30E509541FFEE493A360016B
:100793000ECF54C025E060A840B8E493A3FAE493D5
:1007A300A3F8E493A3C8C582C8CAC583CAF0A3C883
:1007B300C582C8CAC583CADFE9DEE780BEC0E0C020
:1007C300F0C083C082C0D075D000C000C001C00299
:1007D300C003C004C005C006C00753C87F53C8FB8D
:1007E300E515B401127515027F008516487B02E4F6
:1007F300FDFC1208C9800AE515B40305C2957515F9
:1008030000D007D006D005D004D003D002D001D049
:1008130000D0D0D082D083D0F0D0E032E4F5237F73
:100823004A120BA09003E512001EF9120C40C37488
:10083300809FFFE49400C313EF13FDE50A75F003F3
:10084300A424E5F582E43403F58312001E8B278A82
:1008530028F5297F4AAB231205E3E523243CFF7BDC
:10086300007A00794A1209CD0523E523C394084091
:10087300AE22C0E0C0F0C083C082C0D075D000C03B
:1008830000C001C002C003C004C005C006C007C247
:10089300EDAFBDAEBE7C0C7DE4120335E47BFF7A85
:1008A30003F9F81202921205008F1BD007D006D06D
:1008B30005D004D003D002D001D000D0D0D082D054
:1008C30083D0F0D0E03285480F8548108548118FDA
:1008D300148C128D13EB139201EBA2E19202AFA7DA
:1008E300E4F5A7200403120BC385864953B00F30E8
:1008F3000305300002C2B230B115E51060113002B9
:1009030009A814E2F58605148003E4F58615108F13
:10091300A72285A723120C28120C57120C61120C64
:100923006B120C75120CB7120C7F120CC5120CBE95
:10093300120C9D120CA6120CC9120BE4120B3412EA
:100943000C89120B8E120CCD120C0E120C938523F4
:10095300A722011B00010A00030B000000010E0087
:10096300010800010900C100C103C104C101C102A2
:10097300010F000110000111000114000212000018
:100983000115000116000217000002190000008F74
:10099300248D25E52560057525FF8003E4F5257F76
:1009A30080120AF38F26E52404FF120A728F27E4CC
:1009B300FF74282FF8A6250FBF10F6E4F538F53994
:1009C300FB7A0079267D14020AC98F248B258A2697
:1009D30089277F80120AF38F28E52404FF120A7205
:1009E3008F29782A7C007D00AB25AA26A9277E00C3
:1009F3007F10120166E4F53AF53BFB7A0079287D16
:100A030014020AC9120915D2AF120C00120CAF124C
:100A13000C4C8E218F22758701120C4CC3EF95224B
:100A2300FFEE9521FEC3EF940AEE940040E8120C0A
:100A33004C8E218F22120A9E12002E80D9EFA4FF22
:100A4300ED7A002FFFEA35F0FE225407FCE47EFF27
:100A5300A8040822FFEA4EFEEB4F22131313541F80
:100A6300FFEDC39F22A60608F6740829F90D22EFAD
:100A7300540FC454F0FEEF54F0C4540F4EFF5433DC
:100A830025E025E0FEEF54CC1313543F4EFF54559D
:100A930025E0FEEF54AAC3134EFF22120BB2EFC39D
:100AA3009402400EEFD394095008EF24FEF50A1286
:100AB300000312081F20820D750A0812081F780010
:100AC30076A575EF1222E51570FC7515018D16AF2D
:100AD300057E00C002C00178007C007DFED001D0FD
:100AE3000212016675CDFF75CCF4D29543C804227A
:100AF3008F3C120C4CC3EF951AFDEE9519FCD3ED08
:100B030094C8EC94004007433C408E198F1AAF3CC5
:100B130022AF247E00E527FBFD120C368FECAF25B8
:100B2300AD03120C348FFCAF26AD27120C348FEAC1
:100B330022E59154045391FB7595F87594067593CA
:100B4300F8759206439104429122E5D85440FFE59B
:100B5300DF5480FE53D8BF53DF7F22EF42D8EE42EB
:100B6300DF22E4FFFE12018C600C0FEF70010E090F
:100B7300E970F20A80EF22E4F523E4FDAF231209C2
:100B8300920523E523C3948040F02275BB0F75BC07
:100B930039E4F5C4F5C353E8F843E8812290001023
:100BA3007A00A9077B007D00AE83AF820203621245
:100BB3000BF2E4FEEF65096002AE078F09AF062270
:100BC300E584A2E69203E5B0540C24FF9200D2041C
:100BD30022C0E053917F0518E51870020517D0E095
:100BE30032AF88758800758C01758A018F8822AFB2
:100BF3001BE4FEEFB50801FE8F08AF0622C295D2B3
:100C0300A67F0A7E00120056020B7A75850B438479
:100C13004053B0F343B0012275150375CDFF75CC76
:100C2300FC43C80422E4F5A753D9BFF5D943D84000
:100C3300227E007C001201A57DFF0201B7120B6525
:100C4300EF75F006A42402FF2253E67FAF18AE1718
:100C530043E68022120B4D75DA42120B5E22120B11
:100C63004D75DB42120B5E22120B4D75DC42120BEB
:100C73005E22120B4D75CE08120B5E2275A53575DB
:100C8300F27F75D5F822758E02758902438810228A
:100C930075E68875A82075E7082243B280E5B2306F
:100CA300E6FB22E4F5A9E5A930E7FB22E50A1200F9
:100CB3000302081F75F1FC75D4FF2275E34075E24A
:100CC300432275A6472275B6402275D1082200201B
:100CD300505020C0606010400000000000007020F1
:100CE30070F810F830F870700000080080707070B1
:100CF300F070E0F8F8708870388880888870F07039
:100D0300F078F88888888888F870007020004000A0
:100D13008000080030008020108060000000000088
:100D230000004000000000000030206000000000D0
:100D330000000020505078C8902020202020000080
:100D43000000886088103080400888886060100048
:100D5300408808888888908080888820109080D870
:100D63008888888888802088888888880840001038
:100D73005000200080000800487880000080200098
:100D830000000000000040000000000000402010B0
:100D9300400000000000002050F88010A0404010E8
:100DA300A820000000089820082050F080108888B0
:100DB300606020F8200808888880888080808820E8
:100DC30010A080A8C8888888888020888888508850
:100DD3001040801088001070B07068704088B06058
:100DE300309020D0B070F068B070E0888888888830
:100DF300F8402010A80000000000002000507020E0
:100E03004000401070F800F80010A820101090085F
:100E1300F02070780000400010106888F08088F09F
:100E2300F0B8F82010C080A8A888F088F070208857
:100E330088A820502040401000000008C8809888EF
:100E4300E088C82010A020A8C8888898C880408857
:100E530088885088108020081000000000000000DF
:100E630000F80840A8004010A82060000020C82017
:100E73002008F80888408808606020F82020A8F837
:100E8300888088808088882010A08088988880A89F
:100E9300A008208888A85020404020100000007837
:100EA300888088F84078882010C020A88888F07847
:100EB3008070408888A8207820402010000000001F
:100EC300000000000050F098900020202020200017
:100ED3006040882040881088884088106020100077
:100EE3004000A88888889080808888209090808897
:100EF300888880909008208850A88820804010100F
:100F030000000088888888804008882090A0208876
:100F1300888880088008489850A8500840402010CE
:100F2300000000000000002000502018680010405E
:100F33000000400060807070F87010707040706046
:100F43000040080080207088F070E0F8807088709E
:100F53006088F8888870806888F020702050882026
:100F6300F870087000FC0078F0707870407088703A
:100F7300609070888870800880F030682050887096
:100F8300F8302060000000000000000000000000B6
:100F9300000000000000000000000000000000004E
:100FA300000000000000000000000000000000003E
:100FB300000000000000000000000000000000002E
:100FC300000000000000000000000000000000001E
:100FD300000000000000000000000000000000000E
:0E0FE300000000000000000000000000000000
:00000001FF
