:020000040000FA
:1000000002071475F003A424ADF9740335F0FA7BEC
:10001000FF780B7C007D007E007F03020146E493A5
:0A002000FB740193FA74029322228C
:10002B000207A0C2DED2DE2202067DE47E06FDFCC4
:10003B00AB40AA3FA93EA83DC3020304E47E05FDE5
:07004B00FCA83DD3020304F1
:10005300020855E59154045391FB7595F875940680
:100063007593F875920643910442912275D1082243
:10007300020C01E709F608DFFA8046E709F208DF18
:10008300FA803E88828C83E709F0A3DFFA8032E3AB
:1000930009F608DFFA8078E309F208DFFA8070884E
:1000A300828C83E309F0A3DFFA806489828A83E088
:1000B300A3F608DFFA805889828A83E0A3F208DF77
:1000C300FA804C80D280FA80C680D4806980F28026
:1000D30033801080A680EA809A80A880DA80E2804C
:1000E300CA803389828A83ECFAE493A3C8C582C8A1
:1000F300CCC583CCF0A3C8C582C8CCC583CCDFE90B
:10010300DEE7800D89828A83E493A3F608DFF9ECA6
:10011300FAA9F0EDFB2289828A83ECFAE0A3C8C531
:1001230082C8CCC583CCF0A3C8C582C8CCC583CC58
:10013300DFEADEE880DB89828A83E493A3F208DFC7
:10014300F980CC88F0EF60010E4E60C388F0ED2497
:1001530002B4040050B9F582EB2402B4040050AF9A
:1001630023234582239000C673BB010689828A83B9
:10017300E0225002E722BBFE02E32289828A83E463
:100183009322EF8DF0A4A8F0CF8CF0A428CE8DF0AD
:10019300A42EFE22BC000BBE0029EF8DF084FFAD20
:1001A300F022E4CCF875F008EF2FFFEE33FEEC33CA
:1001B300FCEE9DEC984005FCEE9DFE0FD5F0E9E4C6
:1001C300CEFD22EDF8F5F0EE8420D21CFEADF075E5
:1001D300F008EF2FFFED33FD4007985006D5F0F2FE
:1001E30022C398FD0FD5F0EA22BB010A89828A83D4
:1001F300E0F5F0A3E022500687F009E71922BBFEE1
:1002030007E3F5F009E3192289828A83E493F5F081
:1002130074019322BB010A89828A83F0E5F0A3F07B
:10022300225006F709A7F01922BBFE06F3E5F009F1
:10023300F3192275F008758200EF2FFFEE33FECD20
:1002430033CDCC33CCC58233C5829BED9AEC99E593
:100253008298400CF582EE9BFEED9AFDEC99FC0F23
:10026300D5F0D6E4CEFBE4CDFAE4CCF9A88222B8EB
:1002730000C1B90059BA002DEC8BF084CFCECDFC70
:10028300E5F0CBF97818EF2FFFEE33FEED33FDECFD
:1002930033FCEB33FB10D703994004EB99FB0FD8E6
:1002A300E5E4F9FA227818EF2FFFEE33FEED33FD84
:1002B300EC33FCC933C910D7059BE99A4007EC9B83
:1002C300FCE99AF90FD8E0E4C9FAE4CCFB2275F013
:1002D30010EF2FFFEE33FEED33FDCC33CCC833C824
:1002E30010D7079BEC9AE899400AED9BFDEC9AFC2A
:1002F300E899F80FD5F0DAE4CDFBE4CCFAE4C8F9D9
:1003030022EB9FF5F0EA9E42F0E99D42F0E89C451E
:10031300F022EC8EF0A4CCC5F0CCCDF8EFA4CEC582
:10032300F02DFDE43CFCE8A42EC8C5F03DFDE43C03
:10033300FCEFA4FFE5F028FEE43DFDE43CFC22EFE6
:100343004E6012EF60010EEDBB010B89828A83F0D0
:10035300A3DFFCDEFA2289F05007F709DFFCA9F0DE
:1003630022BBFEFCF309DFFCA9F0222052656420C6
:10037300200059656C6C6F770020426C7565200016
:1003830056696F6C6574004F72616E6765005768DC
:100393006974652000477265656E2000496E646963
:1003A300676F004C6F6164657200FF0000FFFF0020
:1003B3000000FF800080FFA500FFFFFF0080004BCF
:1003C3000082FF036EFF0375FF037CFF0383FF03BC
:1003D3008AFF0391FF0398FF039FFF03A6DDDDDC84
:1003E300DAD8D5D2CECAC5C0BBB5AFA9A29C958E6B
:1003F30088817A746D67615B554F4A45403B37325C
:100403002E2A2723201D1A181513110F0D0B0A0866
:1004130007060504030202010100000000000000BA
:100423000000010102020304050607080A0B0D0F71
:10043300111315181A1D2023272A2E32373B404546
:100443004A4F555B61676D747A81888E959CA2A92A
:10045300AFB5BBC0C5CACED2D5D8DADCDDDDDDDCB5
:10046300DAD8D5D2CECAC5C0BBB5AFA9A29C958EEA
:1004730088817A746D67615B554F4A45403B3732DB
:100483002E2A2723201D1A181513110F0D0B0A08E6
:10049300070605040302020101000000000000003A
:1004A3000000010102020304050607080A0B0D0FF1
:1004B300111315181A1D2023272A2E32373B4045C6
:1004C3004A4F555B61676D747A81888E959CA2A9AA
:1004D300AFB5BBC0C5CACED2D5D8DADCDD8F408E6E
:1004E3003F8D3E8C3DE4FFFE120039400FE47F4E0A
:1004F300FE12004A50067541010205C0E47FC47E26
:100503000A1200394010E47F5A7E0B12004A50064B
:100513007541020205C0E47F9A7E0912003940103A
:10052300E47F307E0A12004A50067541030205C07B
:100533007F27120036400FE47FBD7E0612004A502B
:10054300057541048077E47F717E07120039400FFF
:10055300E47F077E0812004A5005754105805EE47A
:100563007F7C7E08120039400FE47F127E0912005F
:100573004A500575410680457FBE120036400FE4A0
:100583007F547E0712004A5005754107802FE47F90
:100593004E7E05120039400C7FE41200475005756A
:1005A30041088019E47F8B7E04120039400C7F21BF
:1005B30012004750057541098003E4F541AF41221C
:1005C3008F248D258B26AB27AA28A92912016C70AD
:1005D3000302067CF52AC3648094A04009D3E52A6C
:1005E300648094FE4003752A20E525D39478400265
:1005F3008073AF2AEF3395E0FE75F064E526A42FF0
:10060300F582E5F03EF583E58224BCF582E583348B
:100613000CF583E493F9E525131313541F2524FDE7
:10062300F8C000E6FA08E6FBE525120A308005CE9D
:10063300C313CE13D8F9F4FFEEF45AFEEB5FD000E8
:10064300A60608F6A805C000E6FA08E6FBE9FEE4FC
:10065300A804088005CEC313CE13D8F9120A3AD0E2
:1006630000A60608F674012529F529E43528F5289E
:1006730074062525F5250205C922C0E0C0F0C08314
:10068300C082C0D075D000C000C001C002C003C08A
:1006930004C005C006C00775A720E5F854F0F4446C
:1006A3000F52F8AF9BEF30E34DE50F6031E5A1202A
:1006B300E02C300113851382851283E5A3F0051323
:1006C300E51370070512800385A342D50F0D300390
:1006D30005300002D2FA120BA58003850F11E51035
:1006E300601430F911300209A814E2F5A30514804F
:1006F3000375A3001510D007D006D005D004D0038E
:10070300D002D001D000D0D0D082D083D0F0D0E0BE
:1007130032787FE4F6D8FD75815702075B0209EA58
:10072300E493A3F8E493A34003F68001F208DFF413
:100733008029E493A3F85407240CC8C333C4540F8B
:100743004420C8834004F456800146F6DFE4800B5E
:100753000102040810204080900938E47E01936070
:10076300BCA3FF543F30E509541FFEE493A360018B
:100773000ECF54C025E060A840B8E493A3FAE493F5
:10078300A3F8E493A3C8C582C8CAC583CAF0A3C8A3
:10079300C582C8CAC583CADFE9DEE780BEC0E0C040
:1007A300F0C083C082C0D075D000C000C001C002B9
:1007B300C003C004C005C006C00753C87F53C8FBAD
:1007C300E515B401127515027F008516477B02E417
:1007D300FDFC1208A9800AE515B40305C28175154D
:1007E30000D007D006D005D004D003D002D001D06A
:1007F30000D0D0D082D083D0F0D0E032E4F5237F94
:1008030048120BCD9003C512001EF9120C6EC3746F
:10081300809FFFE49400C313EF13FDE50A75F00313
:10082300A424C5F582E43403F58312001E8B278AC2
:1008330028F5297F48AB231205C3E523243CFF7B1E
:10084300007A0079481209B00523E523C3940840D0
:10085300AE22C0E0C0F0C083C082C0D075D000C05B
:1008630000C001C002C003C004C005C006C007C267
:10087300EDAFBDAEBE7C0C7DE4120315E47BFF7AC5
:1008830003F9F81202721204E08F1BD007D006D0CE
:1008930005D004D003D002D001D000D0D0D082D074
:1008A30083D0F0D0E03285470F8547108547118FFD
:1008B300148C128D13EB139201EBA2E19202AFA7FA
:1008C30075A720200403120BF0439A0453F80F5327
:1008D3009BEF439A08300305300002C2FA30F91542
:1008E300E5106011300209A814E2F5A30514800392
:1008F300E4F5A315108FA72285A723120CC8120CA9
:100903007A120C84120C8E120C3B120C4812006FDC
:10091300120CD6120029120C11120056120C981246
:10092300002E120CA2120CAC120CB6120C55120CA7
:10093300CF8523A722011B00010A00030B0000003F
:10094300010E00010800010900C100C103C104C177
:1009530001C102010F000110000111000114000286
:100963001200000115000116000217000002190011
:1009730000008F248D25E52560057525FF8003E4A0
:10098300F5257F80120B028F26E52404FF120A86C9
:100993008F27E4FF74282FF8A6250FBF10F6E4F580
:1009A30038F539FB7A0079267D14020A558F248B9A
:1009B300258A2689277F80120B028F28E52404FFCE
:1009C300120A868F29782A7C007D00AB25AA26A9E6
:1009D300277E007F10120146E4F53AF53BFB7A00CF
:1009E30079287D14020A551208FBD2AF120C2D127E
:1009F3000CC0120B7A8E218F22758701120B7AC3DA
:100A0300EF9522FFEE9521FEC3EF940AEE9400408A
:100A1300E8120B7A8E218F22120AB2120ADD80D9D4
:100A2300EFA4FFED7A002FFFEA35F0FE225407FC16
:100A3300E47EFFA8040822FFEA4EFEEB4F221313C5
:100A430013541FFFEDC39F22A60608F6740829F965
:100A53000D22E51570FC7515018D16AF057E00C0DE
:100A630002C00178007C007DFED001D00212014655
:100A7300AFA7E4F5A775CDFF75CCF4D28143C804C5
:100A83008FA722EF540FC454F0FEEF54F0C4540F59
:100A93004EFF543325E025E0FEEF54CC1313543FAF
:100AA3004EFF545525E0FEEF54AAC3134EFF221206
:100AB3000BDFEFC39402400EEFD394095008EF24E9
:100AC300FEF50A1200031207FF20820D750A0812B1
:100AD30007FF780076A575EF1222E50E9003E093E9
:100AE300131313541FF52378247C007D007B007AB5
:100AF30000790B120017852327120B23050E228F73
:100B03003C120B7AC3EF951AFDEE9519FCD3ED94C5
:100B1300C8EC94004007433C408E198F1AAF3C2227
:100B2300AF247E00E527FBFD120C648FECAF25ADEF
:100B330003120C628FFCAF26AD27120C628FEA22E0
:100B4300AB07AA06120B7A8F828E83120B7AC3EF3E
:100B53009582FFEE9583FEC3EF9BEE9A40ED22E56F
:100B6300D85440FFE5F75480FE53D8BF53F77F2294
:100B7300EF42D8EE42F722AFA775A71053E67FAD39
:100B830018AC1743E6808FA7AE04AF0522E4FFFE3F
:100B930012016C600C0FEF70010E09E970F20A800C
:100BA300EF22751503AFA7E4F5A775CDFF75CCFC50
:100BB30043C8048FA722E4F523E4FDAF231209758C
:100BC3000523E523C3948040F0229000107A00A906
:100BD300077B007D00AE83AF82020342120C1FE449
:100BE300FEEF65096002AE078F09AF0622E5A1A2F9
:100BF300E69203E5F8540C24FF9200D20422C0E0ED
:100C030053917F0518E51870020517D0E032AF88BD
:100C1300758800758C01758A018F8822AF1BE4FEED
:100C2300EFB50801FE8F08AF0622C281D2A37F0A67
:100C33007E00120B43020BB9E4F5A775E34075E19F
:100C43000275E2032275BB0F75BC3953E8F843E81C
:100C5300812275A20B43A14053F8F343F801227E8E
:100C6300007C001201857DFF020197120B90EF7546
:100C7300F006A42402FF22E4F5A775A44275D43F2D
:100C83002275A57175F27F75D58E2275A60875A795
:100C93002075CC0822758E027589024388102212B2
:100CA3000B6275DA42120B7322120B6275DB42126E
:100CB3000B7322120B6275DC42120B7322E50A12CC
:100CC30000030207FF7597DE7597AD2275E68875F9
:100CD300A86022E4F5A9F5A9220020505020C060A5
:100CE300601040000000000000702070F810F83021
:100CF300F870700000080080707070F070E0F8F811
:100D0300708870388880888870F070F078F88888E8
:100D1300888888F870007020004000800008003048
:100D230000802010806000000000000000400000F0
:100D33000000000030206000000000000000205090
:100D43005078C89020202020200000000088608870
:100D530010308040088888606010004088088888C8
:100D630088908080888820109080D8888888888898
:100D730080208888888888084000105000200080E0
:100D83000008004878800000802000000000000078
:100D93000040000000000000402010400000000060
:100DA30000002050F88010A0404010A82000000050
:100DB300089820082050F080108888606020F82070
:100DC300080888888088808080882010A080A8C830
:100DD3008888888880208888885088104080108878
:100DE300001070B07068704088B060309020D0B050
:100DF30070F068B070E08888888888F8402010A870
:100E030000000000000020005070204000401070DF
:100E1300F800F80010A82010109008F02070780057
:100E230000400010106888F08088F0F0B8F82010B7
:100E3300C080A8A888F088F070208888A820502057
:100E430040401000000008C8809888E088C820103F
:100E5300A020A8C8888898C88040888888508810AF
:100E6300802008100000000000000000F80840A8DF
:100E7300004010A82060000020C8202008F808883F
:100E8300408808606020F82020A8F8888088808047
:100E930088882010A08088988880A8A00820888847
:100EA300A850204040201000000078888088F84037
:100EB30078882010C020A88888F0788070408888BF
:100EC300A82078204020100000000000000000004F
:100ED30050F098900020202020200060408820407F
:100EE30088108888408810602010004000A88888F7
:100EF30088908080888820909080888888809090CF
:100F030008208850A888208040101000000088889E
:100F13008888804008882090A0208888888008805E
:100F230008489850A85008404020100000000000D6
:100F330000002000502018680010400000400060AE
:100F4300807070F87010707040706000400800800E
:100F5300207088F070E0F8807088706088F8888866
:100F630070806888F0207020508820F87008700026
:100F7300FC0078F07078704070887060907088889A
:100F830070800880F0306820508870F8302060004E
:100F9300000000000000000000000000000000004E
:100FA300000000000000000000000000000000003E
:100FB300000000000000000000000000000000002E
:100FC300000000000000000000000000000000001E
:100FD300000000000000000000000000000000000E
:100FE30000000000000000000000000000000000FE
:090FF300000000000000000000F5
:00000001FF
