:020000040000FA
:1000000002070B75F003A424ADF9740335F0FA7BF5
:10001000FF780B7C007D007E007F03020146E493A5
:09002000FB740193FA74029322AF
:10002B00020797C2DED2DE2202067DAD07AC0612B6
:10003B000C23AB07AA06120C23C3EF9BFFEE9AFE11
:10004B00C3EF9DEE9C40EF2202084CE47E06FDFCC4
:10005B00AB40AA3FA93EA83DC3020304E47E05FDC5
:07006B00FCA83DD3020304D1
:10007300020BAAE709F608DFFA8046E709F208DF70
:10008300FA803E88828C83E709F0A3DFFA8032E3AB
:1000930009F608DFFA8078E309F208DFFA8070884E
:1000A300828C83E309F0A3DFFA806489828A83E088
:1000B300A3F608DFFA805889828A83E0A3F208DF77
:1000C300FA804C80D280FA80C680D4806980F28026
:1000D30033801080A680EA809A80A880DA80E2804C
:1000E300CA803389828A83ECFAE493A3C8C582C8A1
:1000F300CCC583CCF0A3C8C582C8CCC583CCDFE90B
:10010300DEE7800D89828A83E493A3F608DFF9ECA6
:10011300FAA9F0EDFB2289828A83ECFAE0A3C8C531
:1001230082C8CCC583CCF0A3C8C582C8CCC583CC58
:10013300DFEADEE880DB89828A83E493A3F208DFC7
:10014300F980CC88F0EF60010E4E60C388F0ED2497
:1001530002B4040050B9F582EB2402B4040050AF9A
:1001630023234582239000C673BB010689828A83B9
:10017300E0225002E722BBFE02E32289828A83E463
:100183009322EF8DF0A4A8F0CF8CF0A428CE8DF0AD
:10019300A42EFE22BC000BBE0029EF8DF084FFAD20
:1001A300F022E4CCF875F008EF2FFFEE33FEEC33CA
:1001B300FCEE9DEC984005FCEE9DFE0FD5F0E9E4C6
:1001C300CEFD22EDF8F5F0EE8420D21CFEADF075E5
:1001D300F008EF2FFFED33FD4007985006D5F0F2FE
:1001E30022C398FD0FD5F0EA22BB010A89828A83D4
:1001F300E0F5F0A3E022500687F009E71922BBFEE1
:1002030007E3F5F009E3192289828A83E493F5F081
:1002130074019322BB010A89828A83F0E5F0A3F07B
:10022300225006F709A7F01922BBFE06F3E5F009F1
:10023300F3192275F008758200EF2FFFEE33FECD20
:1002430033CDCC33CCC58233C5829BED9AEC99E593
:100253008298400CF582EE9BFEED9AFDEC99FC0F23
:10026300D5F0D6E4CEFBE4CDFAE4CCF9A88222B8EB
:1002730000C1B90059BA002DEC8BF084CFCECDFC70
:10028300E5F0CBF97818EF2FFFEE33FEED33FDECFD
:1002930033FCEB33FB10D703994004EB99FB0FD8E6
:1002A300E5E4F9FA227818EF2FFFEE33FEED33FD84
:1002B300EC33FCC933C910D7059BE99A4007EC9B83
:1002C300FCE99AF90FD8E0E4C9FAE4CCFB2275F013
:1002D30010EF2FFFEE33FEED33FDCC33CCC833C824
:1002E30010D7079BEC9AE899400AED9BFDEC9AFC2A
:1002F300E899F80FD5F0DAE4CDFBE4CCFAE4C8F9D9
:1003030022EB9FF5F0EA9E42F0E99D42F0E89C451E
:10031300F022EC8EF0A4CCC5F0CCCDF8EFA4CEC582
:10032300F02DFDE43CFCE8A42EC8C5F03DFDE43C03
:10033300FCEFA4FFE5F028FEE43DFDE43CFC22EFE6
:100343004E6012EF60010EEDBB010B89828A83F0D0
:10035300A3DFFCDEFA2289F05007F709DFFCA9F0DE
:1003630022BBFEFCF309DFFCA9F0222052656420C6
:10037300200059656C6C6F770020426C7565200016
:1003830056696F6C6574004F72616E6765005768DC
:100393006974652000477265656E2000496E646963
:1003A300676F004C6F6164657200FF0000FFFF0020
:1003B3000000FF800080FFA500FFFFFF0080004BCF
:1003C3000082FF036EFF0375FF037CFF0383FF03BC
:1003D3008AFF0391FF0398FF039FFF03A6DDDDDC84
:1003E300DAD8D5D2CECAC5C0BBB5AFA9A29C958E6B
:1003F30088817A746D67615B554F4A45403B37325C
:100403002E2A2723201D1A181513110F0D0B0A0866
:1004130007060504030202010100000000000000BA
:100423000000010102020304050607080A0B0D0F71
:10043300111315181A1D2023272A2E32373B404546
:100443004A4F555B61676D747A81888E959CA2A92A
:10045300AFB5BBC0C5CACED2D5D8DADCDDDDDDDCB5
:10046300DAD8D5D2CECAC5C0BBB5AFA9A29C958EEA
:1004730088817A746D67615B554F4A45403B3732DB
:100483002E2A2723201D1A181513110F0D0B0A08E6
:10049300070605040302020101000000000000003A
:1004A3000000010102020304050607080A0B0D0FF1
:1004B300111315181A1D2023272A2E32373B4045C6
:1004C3004A4F555B61676D747A81888E959CA2A9AA
:1004D300AFB5BBC0C5CACED2D5D8DADCDD8F408E6E
:1004E3003F8D3E8C3DE4FFFE120059400FE47F4EEA
:1004F300FE12006A50067541010205C0E47FC47E06
:100503000A1200594010E47F5A7E0B12006A50060B
:100513007541020205C0E47F9A7E0912005940101A
:10052300E47F307E0A12006A50067541030205C05B
:100533007F27120056400FE47FBD7E0612006A50EB
:10054300057541048077E47F717E07120059400FDF
:10055300E47F077E0812006A5005754105805EE45A
:100563007F7C7E08120059400FE47F127E0912003F
:100573006A500575410680457FBE120056400FE460
:100583007F547E0712006A5005754107802FE47F70
:100593004E7E05120059400C7FE41200675005752A
:1005A30041088019E47F8B7E04120059400C7F219F
:1005B30012006750057541098003E4F541AF4122FC
:1005C3008F248D258B26AB27AA28A92912016C70AD
:1005D3000302067CF52AC3648094A04009D3E52A6C
:1005E300648094FE4003752A20E525D39478400265
:1005F3008073AF2AEF3395E0FE75F064E526A42FF0
:10060300F582E5F03EF583E5822479F582E58334CE
:100613000CF583E493F9E525131313541F2524FDE7
:10062300F8C000E6FA08E6FBE525120A108005CEBD
:10063300C313CE13D8F9F4FFEEF45AFEEB5FD000E8
:10064300A60608F6A805C000E6FA08E6FBE9FEE4FC
:10065300A804088005CEC313CE13D8F9120A1AD002
:1006630000A60608F674012529F529E43528F5289E
:1006730074062525F5250205C922C0E0C0F0C08314
:10068300C082C0D075D000C000C001C002C003C08A
:1006930004C005C006C007E5F854F0FFF4440F5248
:1006A300F8EF30E748E50F602C300113851382859E
:1006B3001283E5A3F00513E5137007051280038584
:1006C300A342D50F0D300305300002D2FA120BFE00
:1006D3008003850F11E510601430F911300209A869
:1006E30014E2F5A30514800375A3001510D007D0F9
:1006F30006D005D004D003D002D001D000D0D0D092
:1007030082D083D0F0D0E032787FE4F6D8FD7581D3
:1007130058020752020997E493A3F8E493A3400312
:10072300F68001F208DFF48029E493A3F854072448
:100733000CC8C333C4540F4420C8834004F4568008
:100743000146F6DFE4800B0102040810204080908C
:1007530008E5E47E019360BCA3FF543F30E50954F0
:100763001FFEE493A360010ECF54C025E060A840B0
:10077300B8E493A3FAE493A3F8E493A3C8C582C8A7
:10078300CAC583CAF0A3C8C582C8CAC583CADFE97C
:10079300DEE780BEC0E0C0F0C083C082C0D075D0A9
:1007A30000C000C001C002C003C004C005C006C031
:1007B3000753C87F53C8FBE515B401127515027FB3
:1007C300008516477B02E4FDFC1208A0800AE515AC
:1007D300B40305C281751500D007D006D005D00437
:1007E300D003D002D001D000D0D0D082D083D0F0BB
:1007F300D0E032E4F5237F49120B769003C5120053
:100803001EF9120C17C374809FFFE49400C313EF07
:1008130013FDE50A75F003A424C5F582E43403F55A
:100823008312001E8B278A28F5297F49AB231205E3
:10083300C3E523243CFF7B007A00794912095D0557
:1008430023E523C3940840AE22C0E0C0F0C083C0B8
:1008530082C0D075D000C000C001C002C003C00474
:10086300C005C006C007C2EDAFBDAEBE7C0C7DE4C3
:10087300120315E47BFF7A03F9F81202721204E003
:100883008F1BD007D006D005D004D003D002D001EF
:10089300D000D0D0D082D083D0F0D0E03285470FC3
:1008A3008547108547118F148C128D13EB1392011A
:1008B300EBA2E19202200403120B9985A34853F89B
:1008C3000F300305300002C2FA30F915E51060114C
:1008D300300209A814E2F5A305148003E4F5A31577
:1008E3001022011B00010A00030B000000010E008F
:1008F300010800010900C100C103C104C101C10213
:10090300010F000110000111000114000212000088
:100913000115000116000217000002190000008FE4
:10092300248D25E52560057525FF8003E4F5257FE6
:1009330080120ADB8F26E52404FF120A358F27E491
:10094300FF74282FF8A6250FBF10F6E4F538F53904
:10095300FB7A0079267D14020A8C8F248B258A2644
:1009630089277F80120ADB8F28E52404FF120A35CA
:100973008F29782A7C007D00AB25AA26A9277E0033
:100983007F10120146E4F53AF53BFB7A0079287DA6
:1009930014020A8C1209D0D2AF120BD6120C7412A5
:1009A3000C238E218F22758701120C23C3EF95220E
:1009B300FFEE9521FEC3EF940AEE940040E8120C7B
:1009C300238E218F22120A61120AB680D9120C7C5F
:1009D300120C83120C2E120C38120BE4120C91120F
:1009E3000C95120BBA120C42120B1C120C4C120077
:1009F3002E120C56120C60120C6A120BF1020C8AA6
:100A0300EFA4FFED7A002FFFEA35F0FE225407FC36
:100A1300E47EFFA8040822FFEA4EFEEB4F221313E5
:100A230013541FFFEDC39F22A60608F6740829F985
:100A33000D22EF540FC454F0FEEF54F0C4540F4E84
:100A4300FF543325E025E0FEEF54CC1313543F4EFF
:100A5300FF545525E0FEEF54AAC3134EFF22120B99
:100A630088EFC39402400EEFD394095008EF24FE9D
:100A7300F50A1200031207F620820D750A08120701
:100A8300F6780076A575EF1222E51570FC75150151
:100A93008D16AF057E00C002C00178007C007DFE8C
:100AA300D001D00212014675CDFF75CCF4D281433B
:100AB300C80422E50E9003E093131313541FF52388
:100AC30078247C007D007B007A00790B1200178567
:100AD3002327120AFC050E228F3C120C23C3EF9529
:100AE3001AFDEE9519FCD3ED94C8EC94004007432E
:100AF3003C408E198F1AAF3C22AF247E00E527FBC2
:100B0300FD120C0D8FECAF25AD03120C0B8FFCAF58
:100B130026AD27120C0B8FEA22E59154045391FB67
:100B23007595F87594067593F8759206439104428A
:100B33009122E5D85440FFE5F75480FE53D8BF53C4
:100B4300F77F22EF42D8EE42F722E4FFFE12016C58
:100B5300600C0FEF70010E09E970F20A80EF22E4D6
:100B6300F523E4FDAF231209220523E523C3948073
:100B730040F0229000107A00A9077B007D00AE832D
:100B8300AF82020342120BC8E4FEEF65096002AEB6
:100B9300078F09AF0622E5A1A2E69203E5F8540CFC
:100BA30024FF9200D20422C0E053917F0518E51878
:100BB30070020517D0E032AF88758800758C017517
:100BC3008A018F8822AF1BE4FEEFB50801FE8F0870
:100BD300AF0622C281D2807F0A7E00120036020B4A
:100BE3006275BB0F75BC3953E8F843E8812275A2DF
:100BF3000B43A14053F8F343F8012275150375CD58
:100C0300FF75CCFC43C804227E007C001201857D65
:100C1300FF020197120B4DEF75F006A42402FF2289
:100C230053E67FAF18AE1743E6802275A57175F2C0
:100C33007F75D58E2275E34075E10275E20322E5E7
:100C4300C8540453C8FB42C822758E0275890243F7
:100C5300881022120B3575DA42120B4622120B351D
:100C630075DB42120B4622120B3575DC42120B4622
:100C730022E50A1200030207F67597DE7597AD2287
:100C830075A44375D43F2275E68875A8602275D193
:100C93000822E4F5A9220020505020C060601040D3
:100CA300000000000000702070F810F830F8707039
:100CB3000000080080707070F070E0F8F8708870C1
:100CC300388880888870F070F078F88888888888F9
:100CD300F870007020004000800008003000802081
:100CE30010806000000000000000400000000000D1
:100CF300003020600000000000000020505078C841
:100D03009020202020200000000088608810308080
:100D13004008888860601000408808888888908030
:100D230080888820109080D8888888888880208848
:100D33008888888808400010500020008000080040
:100D43004878800000802000000000000000400080
:100D530000000000004020104000000000000020C0
:100D630050F88010A0404010A820000000089820F0
:100D7300082050F080108888606020F820080888D8
:100D8300888088808080882010A080A8C888888870
:100D930088802088888850881040801088001070D0
:100DA300B07068704088B060309020D0B070F06848
:100DB300B070E08888888888F8402010A800000078
:100DC30000000020005070204000401070F800F830
:100DD3000010A82010109008F02070780000400048
:100DE30010106888F08088F0F0B8F82010C080A850
:100DF300A888F088F070208888A8205020404010F0
:100E030000000008C8809888E088C82010A020A8A7
:100E1300C8888898C88040888888508810802008AF
:100E2300100000000000000000F80840A800401077
:100E3300A82060000020C8202008F80888408808FF
:100E4300606020F82020A8F8888088808088882027
:100E530010A08088988880A8A008208888A850209F
:100E63004040201000000078888088F8407888206F
:100E730010C020A88888F0788070408888A82078DF
:100E83002040201000000000000000000050F098F7
:100E93009000202020202000604088204088108877
:100EA30088408810602010004000A88888889080BF
:100EB30080888820909080888888809090082088F7
:100EC30050A88820804010100000008888888880FF
:100ED3004008882090A02088888880088008489847
:100EE30050A85008404020100000000000000020DF
:100EF30000502018680010400000400060807070AF
:100F0300F870107070407060004008008020708896
:100F1300F070E0F8807088706088F8888870806866
:100F230088F0207020508820F870087000FC00784A
:100F3300F070787040708870609070888870800856
:100F430080F0306820508870F83020600000000086
:100F5300000000000000000000000000000000008E
:100F6300000000000000000000000000000000007E
:100F7300000000000000000000000000000000006E
:100F8300000000000000000000000000000000005E
:100F9300000000000000000000000000000000004E
:100FA300000000000000000000000000000000003E
:060FB30000000000000038
:00000001FF
