:020000040000FA
:1000000002070B75F003A424ADF9740335F0FA7BF5
:10001000FF780B7C007D007E007F03020146E493A5
:09002000FB740193FA74029322AF
:07002B0002079775D10822BE
:1000330002067DAD07AC06120C21AB07AA06120C13
:1000430021C3EF9BFFEE9AFEC3EF9DEE9C40EF2290
:1000530002084CE47E06FDFCAB40AA3FA93EA83D46
:0F006300C3020304E47E05FDFCA83DD3020304A1
:10007300020BA9E709F608DFFA8046E709F208DF71
:10008300FA803E88828C83E709F0A3DFFA8032E3AB
:1000930009F608DFFA8078E309F208DFFA8070884E
:1000A300828C83E309F0A3DFFA806489828A83E088
:1000B300A3F608DFFA805889828A83E0A3F208DF77
:1000C300FA804C80D280FA80C680D4806980F28026
:1000D30033801080A680EA809A80A880DA80E2804C
:1000E300CA803389828A83ECFAE493A3C8C582C8A1
:1000F300CCC583CCF0A3C8C582C8CCC583CCDFE90B
:10010300DEE7800D89828A83E493A3F608DFF9ECA6
:10011300FAA9F0EDFB2289828A83ECFAE0A3C8C531
:1001230082C8CCC583CCF0A3C8C582C8CCC583CC58
:10013300DFEADEE880DB89828A83E493A3F208DFC7
:10014300F980CC88F0EF60010E4E60C388F0ED2497
:1001530002B4040050B9F582EB2402B4040050AF9A
:1001630023234582239000C673BB010689828A83B9
:10017300E0225002E722BBFE02E32289828A83E463
:100183009322EF8DF0A4A8F0CF8CF0A428CE8DF0AD
:10019300A42EFE22BC000BBE0029EF8DF084FFAD20
:1001A300F022E4CCF875F008EF2FFFEE33FEEC33CA
:1001B300FCEE9DEC984005FCEE9DFE0FD5F0E9E4C6
:1001C300CEFD22EDF8F5F0EE8420D21CFEADF075E5
:1001D300F008EF2FFFED33FD4007985006D5F0F2FE
:1001E30022C398FD0FD5F0EA22BB010A89828A83D4
:1001F300E0F5F0A3E022500687F009E71922BBFEE1
:1002030007E3F5F009E3192289828A83E493F5F081
:1002130074019322BB010A89828A83F0E5F0A3F07B
:10022300225006F709A7F01922BBFE06F3E5F009F1
:10023300F3192275F008758200EF2FFFEE33FECD20
:1002430033CDCC33CCC58233C5829BED9AEC99E593
:100253008298400CF582EE9BFEED9AFDEC99FC0F23
:10026300D5F0D6E4CEFBE4CDFAE4CCF9A88222B8EB
:1002730000C1B90059BA002DEC8BF084CFCECDFC70
:10028300E5F0CBF97818EF2FFFEE33FEED33FDECFD
:1002930033FCEB33FB10D703994004EB99FB0FD8E6
:1002A300E5E4F9FA227818EF2FFFEE33FEED33FD84
:1002B300EC33FCC933C910D7059BE99A4007EC9B83
:1002C300FCE99AF90FD8E0E4C9FAE4CCFB2275F013
:1002D30010EF2FFFEE33FEED33FDCC33CCC833C824
:1002E30010D7079BEC9AE899400AED9BFDEC9AFC2A
:1002F300E899F80FD5F0DAE4CDFBE4CCFAE4C8F9D9
:1003030022EB9FF5F0EA9E42F0E99D42F0E89C451E
:10031300F022EC8EF0A4CCC5F0CCCDF8EFA4CEC582
:10032300F02DFDE43CFCE8A42EC8C5F03DFDE43C03
:10033300FCEFA4FFE5F028FEE43DFDE43CFC22EFE6
:100343004E6012EF60010EEDBB010B89828A83F0D0
:10035300A3DFFCDEFA2289F05007F709DFFCA9F0DE
:1003630022BBFEFCF309DFFCA9F0222052656420C6
:10037300200059656C6C6F770020426C7565200016
:1003830056696F6C6574004F72616E6765005768DC
:100393006974652000477265656E2000496E646963
:1003A300676F004C6F6164657200FF0000FFFF0020
:1003B3000000FF800080FFA500FFFFFF0080004BCF
:1003C3000082FF036EFF0375FF037CFF0383FF03BC
:1003D3008AFF0391FF0398FF039FFF03A6DDDDDC84
:1003E300DAD8D5D2CECAC5C0BBB5AFA9A29C958E6B
:1003F30088817A746D67615B554F4A45403B37325C
:100403002E2A2723201D1A181513110F0D0B0A0866
:1004130007060504030202010100000000000000BA
:100423000000010102020304050607080A0B0D0F71
:10043300111315181A1D2023272A2E32373B404546
:100443004A4F555B61676D747A81888E959CA2A92A
:10045300AFB5BBC0C5CACED2D5D8DADCDDDDDDDCB5
:10046300DAD8D5D2CECAC5C0BBB5AFA9A29C958EEA
:1004730088817A746D67615B554F4A45403B3732DB
:100483002E2A2723201D1A181513110F0D0B0A08E6
:10049300070605040302020101000000000000003A
:1004A3000000010102020304050607080A0B0D0FF1
:1004B300111315181A1D2023272A2E32373B4045C6
:1004C3004A4F555B61676D747A81888E959CA2A9AA
:1004D300AFB5BBC0C5CACED2D5D8DADCDD8F408E6E
:1004E3003F8D3E8C3DE4FFFE120059400FE47F4EEA
:1004F300FE12006A50067541010205C0E47FC47E06
:100503000A1200594010E47F5A7E0B12006A50060B
:100513007541020205C0E47F9A7E0912005940101A
:10052300E47F307E0A12006A50067541030205C05B
:100533007F27120056400FE47FBD7E0612006A50EB
:10054300057541048077E47F717E07120059400FDF
:10055300E47F077E0812006A5005754105805EE45A
:100563007F7C7E08120059400FE47F127E0912003F
:100573006A500575410680457FBE120056400FE460
:100583007F547E0712006A5005754107802FE47F70
:100593004E7E05120059400C7FE41200675005752A
:1005A30041088019E47F8B7E04120059400C7F219F
:1005B30012006750057541098003E4F541AF4122FC
:1005C3008F248D258B26AB27AA28A92912016C70AD
:1005D3000302067CF52AC3648094A04009D3E52A6C
:1005E300648094FE4003752A20E525D39478400265
:1005F3008073AF2AEF3395E0FE75F064E526A42FF0
:10060300F582E5F03EF583E5822468F582E58334DF
:100613000CF583E493F9E525131313541F2524FDE7
:10062300F8C000E6FA08E6FBE525120A178005CEB6
:10063300C313CE13D8F9F4FFEEF45AFEEB5FD000E8
:10064300A60608F6A805C000E6FA08E6FBE9FEE4FC
:10065300A804088005CEC313CE13D8F9120A21D0FB
:1006630000A60608F674012529F529E43528F5289E
:1006730074062525F5250205C922C0E0C0F0C08314
:10068300C082C0D075D000C000C001C002C003C08A
:1006930004C005C006C007E5F854F0FFF4440F5248
:1006A300F8EF30E748E50F602C300113851382859E
:1006B3001283E5A3F00513E5137007051280038584
:1006C300A342D50F0D300305300002D2FA120BF00E
:1006D3008003850F11E510601430F911300209A869
:1006E30014E2F5A30514800375A3001510D007D0F9
:1006F30006D005D004D003D002D001D000D0D0D092
:1007030082D083D0F0D0E032787FE4F6D8FD7581D3
:10071300580207520209D1E493A3F8E493A34003D8
:10072300F68001F208DFF48029E493A3F854072448
:100733000CC8C333C4540F4420C8834004F4568008
:100743000146F6DFE4800B0102040810204080908C
:1007530008E5E47E019360BCA3FF543F30E50954F0
:100763001FFEE493A360010ECF54C025E060A840B0
:10077300B8E493A3FAE493A3F8E493A3C8C582C8A7
:10078300CAC583CAF0A3C8C582C8CAC583CADFE97C
:10079300DEE780BEC0E0C0F0C083C082C0D075D0A9
:1007A30000C000C001C002C003C004C005C006C031
:1007B3000753C87F53C8FBE515B401127515027FB3
:1007C300008516477B02E4FDFC1208A0800AE515AC
:1007D300B40305C281751500D007D006D005D00437
:1007E300D003D002D001D000D0D0D082D083D0F0BB
:1007F300D0E032E4F5237F49120B659003C5120064
:100803001EF9120C15C374809FFFE49400C313EF09
:1008130013FDE50A75F003A424C5F582E43403F55A
:100823008312001E8B278A28F5297F49AB231205E3
:10083300C3E523243CFF7B007A007949120997051D
:1008430023E523C3940840AE22C0E0C0F0C083C0B8
:1008530082C0D075D000C000C001C002C003C00474
:10086300C005C006C007C2EDAFBDAEBE7C0C7DE4C3
:10087300120315E47BFF7A03F9F81202721204E003
:100883008F1BD007D006D005D004D003D002D001EF
:10089300D000D0D0D082D083D0F0D0E03285470FC3
:1008A3008547108547118F148C128D13EB1392011A
:1008B300EBA2E19202200403120B8885A34853F8AC
:1008C3000F300305300002C2FA30F915E51060114C
:1008D300300209A814E2F5A305148003E4F5A31577
:1008E3001022011B00010A00030B000000010E008F
:1008F300010800010900C100C103C104C101C10213
:10090300010F000110000111000114000212000088
:100913000115000116000217000002190000008FE4
:10092300248D25E52560057525FF8003E4F5257FE6
:1009330080120AE28F26E52404FF120A3C8F27E483
:10094300FF74282FF8A6250FBF10F6E4F538F53904
:10095300FB7A0079267D14020A9385BF23120BFDCF
:10096300120C48120C4F120C56120C5D120C64122E
:100973000C2C120C6B120B9912002E120C80120C01
:1009830084120BB9120B23120C36120BE3120C72E6
:100993008523BF228F248B258A2689277F80120AED
:1009A300E28F28E52404FF120A3C8F29782A7C0071
:1009B3007D00AB25AA26A9277E007F10120146E4FD
:1009C300F53AF53BFB7A0079287D14020A93120964
:1009D3005DD2AF120BD5120C40120C218E218F2247
:1009E300758701120C21C3EF9522FFEE9521FEC3FB
:1009F300EF940AEE940040E8120C218E218F22120C
:100A03000A68120ABD80D9EFA4FFED7A002FFFEA2E
:100A130035F0FE225407FCE47EFFA8040822FFEA17
:100A23004EFEEB4F22131313541FFFEDC39F22A659
:100A33000608F6740829F90D22EF540FC454F0FE8A
:100A4300EF54F0C4540F4EFF543325E025E0FEEF7E
:100A530054CC1313543F4EFF545525E0FEEF54AAD4
:100A6300C3134EFF22120B77EFC39402400EEFD352
:100A730094095008EF24FEF50A1200031207F6202A
:100A8300820D750A081207F6780076A575EF122213
:100A9300E51570FC7515018D16AF057E00C002C00B
:100AA3000178007C007DFED001D00212014675CD95
:100AB300FF75CCF4D28143C80422E50E9003E09382
:100AC300131313541FF52378247C007D007B007AD5
:100AD30000790B120017852327120B03050E228FB3
:100AE3003C120C21C3EF951AFDEE9519FCD3ED943E
:100AF300C8EC94004007433C408E198F1AAF3C2248
:100B0300AF247E00E527FBFD120C0B8FECAF25AD68
:100B130003120C098FFCAF26AD27120C098FEA22B2
:100B2300E59154045391FB7595F87594307593F8DA
:100B3300759230439104429122E4FFFE12016C60EE
:100B43000C0FEF70010E09E970F20A80EF22E4F551
:100B530023E4FDAF231209220523E523C394804038
:100B6300F0229000107A00A9077B007D00AE83AFCE
:100B730082020342120BC7E4FEEF65096002AE076F
:100B83008F09AF0622E5A1A2E69203E5F8540C24EF
:100B9300FF9200D2042275BC3875BA1F75BB04538B
:100BA300E8F843E88122C0E053917F0518E5187007
:100BB300020517D0E032AF88758800758C06758AF8
:100BC300068F8822AF1BE4FEEFB50801FE8F08AF46
:100BD3000622C281D2947F0A7E00120036020B5194
:100BE30075A20B43A14053F8F343F8012275150393
:100BF30075CDFF75CCFC43C80422E4F5BF53D9BFC0
:100C0300F5D943D840227E007C001201857DFF0286
:100C13000197120B3CEF75F006A42402FF2253E662
:100C23007FAF18AE1743E6802275A60175F3DF7513
:100C3300D62022758E0275890243881022E50A1296
:100C430000030207F6120C7975DA4222120C797549
:100C5300DB4222120C7975DC422275A44275D43F23
:100C63002275A5D175D53E2275E24375E102227541
:100C7300E68875A86022E5D8544042D82243B203DF
:100C83002275A902220020505020C060601040004D
:100C93000000000000702070F810F830F870700049
:100CA30000080080707070F070E0F8F87088703899
:100CB3008880888870F070F078F88888888888F849
:100CC3007000702000400080000800300080201079
:100CD30080600000000000000040000000000000F1
:100CE3003020600000000000000020505078C890C1
:100CF30020202020200000000088608810308040E1
:100D03000888886060100040880888888890808000
:100D1300888820109080D888888888888020888850
:100D23008888880840001050002000800008004890
:100D330078800000802000000000000000400000D8
:100D43000000000040201040000000000000205080
:100D5300F88010A0404010A8200000000898200848
:100D63002050F080108888606020F8200808888868
:100D73008088808080882010A080A8C88888888880
:100D8300802088888850881040801088001070B0B8
:100D93007068704088B060309020D0B070F068B058
:100DA30070E08888888888F8402010A80000000038
:100DB300000020005070204000401070F800F80040
:100DC30010A82010109008F0207078000040001048
:100DD300106888F08088F0F0B8F82010C080A8A8C8
:100DE30088F088F070208888A820502040401000A8
:100DF300000008C8809888E088C82010A020A8C8F0
:100E0300888898C880408888885088108020081077
:100E13000000000000000000F80840A8004010A8EF
:100E23002060000020C8202008F808884088086057
:100E33006020F82020A8F888808880808888201087
:100E4300A08088988880A8A008208888A85020407F
:100E530040201000000078888088F84078882010AF
:100E6300C020A88888F0788070408888A8207820DF
:100E730040201000000000000000000050F0989097
:100E8300002020202020006040882040881088888F
:100E9300408810602010004000A8888888908080D7
:100EA3008888209090808888888090900820885037
:100EB300A88820804010100000008888888880401F
:100EC30008882090A0208888888008800848985047
:100ED300A85008404020100000000000000020003F
:100EE300502018680010400000400060807070F8C7
:100EF300701070704070600040080080207088F0AF
:100F030070E0F8807088706088F8888870806888DE
:100F1300F0207020508820F870087000FC0078F0F2
:100F230070787040708870609070888870800880D6
:100F3300F0306820508870F8302060000000000016
:100F4300000000000000000000000000000000009E
:100F5300000000000000000000000000000000008E
:100F6300000000000000000000000000000000007E
:100F7300000000000000000000000000000000006E
:100F8300000000000000000000000000000000005E
:100F9300000000000000000000000000000000004E
:050FA300000000000049
:00000001FF
