:020000040000FA
:10000000020B988C2C8D2DE47859F608F6EF75F0DC
:1000100012A42404F9740035F008760108F608A645
:1000200001E51A14785AF6785AE6D39400402CE683
:10003000FD120CE2860308E6FA08E6F98F828E8349
:1000400012011EFFAEF075F002EDA4F58285F0837B
:10005000EE8FF01201AD785A1680CC785B860308DB
:10006000E6FA08E6F9E52C852DF012018E7859E6BE
:10007000FF22220215C6EF8DF0A4A8F0CF8CF0A4C9
:1000800028CE8DF0A42EFE22BC000BBE0029EF8DE1
:10009000F084FFADF022E4CCF875F008EF2FFFEE0E
:1000A00033FEEC33FCEE9DEC984005FCEE9DFE0F1C
:1000B000D5F0E9E4CEFD22EDF8F5F0EE8420D21C77
:1000C000FEADF075F008EF2FFFED33FD40079850BF
:1000D00006D5F0F222C398FD0FD5F0EA22C5F0F85C
:1000E000A3E028F0C5F0F8E582158270021583E0E0
:1000F00038F022BB010A89828A83E0F5F0A3E0226E
:10010000500687F009E71922BBFE07E3F5F009E383
:10011000192289828A83E493F5F074019322BB014A
:1001200010E58229F582E5833AF583E0F5F0A3E056
:10013000225009E92582F886F008E622BBFE0AE98A
:100140002582F8E2F5F008E222E5832AF583E993B7
:10015000F5F0A3E99322BB010789828A830200DDBF
:10016000500B09C5F027F7C5F01937F722BBFE0D74
:1001700009F8E325F0F3C5F019E338F322F8898292
:100180008A8374019325F0C5F0F8E4933822BB010B
:100190000A89828A83F0E5F0A3F0225006F709A7C6
:1001A000F01922BBFE06F3E5F009F31922F8BB01B2
:1001B00011E58229F582E5833AF583E8F0E5F0A3BD
:1001C000F0225009E92582C8F608A6F022BBFE09F4
:1001D000E92582C8F2E5F008F222E88FF0A4CC8B82
:1001E000F0A42CFCE98EF0A42CFC8AF0EDA42CFCED
:1001F000EA8EF0A4CDA8F08BF0A42DCC3825F0FD2C
:10020000E98FF0A42CCD35F0FCEB8EF0A4FEA9F024
:10021000EB8FF0A4CFC5F02ECD39FEE43CFCEAA470
:100220002DCE35F0FDE43CFC2275F008758200EF20
:100230002FFFEE33FECD33CDCC33CCC58233C58218
:100240009BED9AEC99E58298400CF582EE9BFEEDD1
:100250009AFDEC99FC0FD5F0D6E4CEFBE4CDFAE4A0
:10026000CCF9A88222B800C1B90059BA002DEC8B94
:10027000F084CFCECDFCE5F0CBF97818EF2FFFEE70
:1002800033FEED33FDEC33FCEB33FB10D703994029
:1002900004EB99FB0FD8E5E4F9FA227818EF2FFF69
:1002A000EE33FEED33FDEC33FCC933C910D7059BAB
:1002B000E99A4007EC9BFCE99AF90FD8E0E4C9FA07
:1002C000E4CCFB2275F010EF2FFFEE33FEED33FD93
:1002D000CC33CCC833C810D7079BEC9AE899400AB6
:1002E000ED9BFDEC9AFCE899F80FD5F0DAE4CDFB34
:1002F000E4CCFAE4C8F922E8600FEFC333FFEE3331
:10030000FEED33FDEC33FCD8F122E6FB08E6F908FC
:10031000E6FA08E6CBF822ECF608EDF608EEF60869
:10032000EFF622ECF0A3EDF0A3EEF0A3EFF022D075
:1003300083D082E493F608740193F608740293F66E
:1003400008740393F6740473A42582F582E5F035EE
:1003500083F583228A838982E473EC8EF0A4CCC572
:10036000F0CCCDF8EFA4CEC5F02DFDE43CFCE8A424
:100370002EC8C5F03DFDE43CFCEFA4FFE5F028FEEF
:10038000E43DFDE43CFC22E49000A2F0A3F09000E8
:10039000A2E0FCA3E0FDC3950B7480F8EC648098A8
:1003A00040030204EBAF05E4FD120F939000A4128A
:1003B00010287D01120F939000A6121028121653D8
:1003C0009000A9EEF0A3EFF09000A6E0FEA3D312F8
:1003D0001043402B9000A9E0FEA3E0FF9000A7E0AF
:1003E0002FFD9000A6E03ED312105040129000A7BF
:1003F000E02FFF9000A6E03E9000A4F0A3EFF09065
:1004000000A6E0FEA3C3121043502D9000A9E0FE09
:10041000A3E0FFC39000A7E09FFD9000A6E09EC36D
:100420001210505013C39000A7E09FFF9000A6E069
:100430009E9000A4F0A3EFF0E49000A6F0A31210A9
:100440002C1210679000A8EFF09000A2E0FE1210AE
:100450005CEE75F012A42583F583E0FCA3E0FDA318
:10046000E0FEA3E0FFC0077879E6FBE4FAF9F8D0F4
:1004700007120265C004A905AA06AB077879E6242D
:10048000FFFFE434FFFEE4FCFDD0001201DAC004FB
:10049000C005C006C0077879E6FBE4FAF9F89000D9
:1004A000A4E0FCA3E0FDA3E0FEA3E0FF120265D000
:1004B00003D002D001D000EB2FFFEA3EFEE93DFD64
:1004C000E83CFC9000A2E0FA12105CEA75F012A47D
:1004D0002583F5831203239000A3E004F060030258
:1004E000038E9000A2E004F002038E22E4F51BF5D7
:1004F0001CFD1212FBFAA3E0FBC39FEA9E500CED19
:1005000025E0241DF8E4F608F6801A75F012ED9047
:100510000008120348E0121316FFED25E0241DF831
:10052000760008A6070DBD03C9C3E51E9522E51D8B
:1005300095214024E51E9520E51D951F401A752341
:100540000075242875250075263C7527007528142C
:10055000752900752A3C8047C3E522951EE5219543
:100560001D4024E5229520E521951F401A752300A2
:1005700075243C7525007526147527007528287587
:100580002901752A2C8018752300752414752500FF
:1005900075262875270075283C752900752AB4AC86
:1005A00025AD26AE1FAF20120076AA06AB07AC23FE
:1005B000AD24AE1DAF1E120076EF2BFBEE3AFAAC67
:1005C00027AD28AE21AF22120076EF2BFFEE3AFEC8
:1005D000E51E2520FDE51D351FFCE5222DFDE5214D
:1005E0003CFC1200888E1B8F1C7C007D061200765E
:1005F000EF2488F51CEE34FFF51BE52A251CF51CBD
:10060000E529351BF51B7B007A00791B1214EBAE34
:100610001BAF1C22E47869F608F67856F67856E6A1
:10062000FFC3950B40030206AAE4FD120F9378570F
:10063000A60608A6077856E6FF7D01120F937859A3
:10064000EEF608EFF67857E6FC08E6FDD39FEC9E41
:10065000400EED785A96795CF7EC189619F78012EF
:10066000C3795AE7785896FF19E71896785BF60829
:10067000A6077856E6FF121653E4FCFDC004A90550
:10068000AA06AB07785BE6FE08E6FF7D6412035A14
:10069000D000120265785BEEF608EFF6786A26F66F
:1006A00018EE36F678560602061DE47869F608F666
:1006B0007F07FEFDFC786512030A1201DA1216DAD2
:1006C000C004C005C006C0077869E6FE08E6FFE47E
:1006D000FCFD78101202F71216DAD003D002D00116
:1006E000D000EB2FFFEA3EFEE93DFDE83CFC7865DB
:1006F000120317E50BFD7C007865E6FE08E6FF12A5
:100700000088786BA60608A607228F1C785612036D
:100710002F000000001210DBE0FEA3E0785AA606CE
:1007200008F6AF1C7E00121685EF60030207F0AFDB
:100730001C121067EF6401600E1210FDFEA3E0783A
:100740005CA60608F6800EE4FDAF1C120F93785CE1
:10075000A60608A607785AE6FE08E6FF08E6FC08A3
:10076000E6FDD39FEC9E40091210ECE0240AF080D5
:100770000EC3ED9FEC9E50071210ECE024F6F01231
:1007800010ECE0FFD3648094E4400D1210DBE475BC
:10079000F0011200DD0207EBC3EF6480941C50509F
:1007A000AF1C121067EF64017032E509C313FEE558
:1007B0000A13FF1210DBE0FCA3E0C39FFFEC9EFED8
:1007C0001210FDFCA3E0FDC39FEC9E75F012E51C2A
:1007D000500F1210E0ECF0A3EDF0800F75F012E571
:1007E0001C1210E074FFF5F01200DD1210ECE4F0C2
:1007F00022E47859F67859E6FFC3950B40030208C6
:10080000C875F012EFA42408F582E5F03400F583F2
:10081000E0FEA3E0785CA60608F618E6FE08E6FF10
:10082000250AFDE5093EFC785AF608EDF6C39FEC73
:100830009E50097859E675F0120208BD1208C9C029
:1008400006C007121579120F93AC06AD07D007D07A
:1008500006C3ED9FFFEC9EFE785EF608EFF6C3EE52
:1008600064809480501418E6FE08E6FF7CFF7DFF4C
:10087000120076785EA60608A6077878E6FFC378A9
:100880005FE69F7480F5F0186695F0500D1208C968
:10089000AA06AB07121579121610121579121287D3
:1008A000785AE6FC08E6FDD3EF9DEE9C7859E67594
:1008B000F012400912156DE04440F0800512156DEC
:1008C000E4F07859060207F5227859E6FF7D011217
:1008D000128722E4F51EF51FF523F522F521F520F8
:1008E000F527F526F525F524F51CE51CC3950B40E9
:1008F0000302099CE4F52AF52B74FFF528F529E499
:10090000F527F526F525F524F51DE51D25E02474CC
:10091000F8E4F608F6051DE51DB402EEE4F51DAF9A
:100920001C121202AB07AA06E51D25E02474F8A6E6
:100930000208A603E4FCFDE5272FF527E5263EF592
:1009400026ED3525F525EC3524F524051DE51DC3DB
:10095000940240CBAF27AE26AD25AC24E47B02FA4F
:10096000F9F81202658F278E268D258C24E51C123E
:1009700010DDEEF0A3EFF0E4F51DE51DC3951A5070
:1009800016AC26AD27AF1C120E3EAC26AD27AF1C11
:10099000120003051D80E3051C0208EA228D1E7566
:1009A000F012EDA42408F582E5F03400F583E0FCB4
:1009B000A3E0FD785DECF608EDF67859A61108A6DF
:1009C0001208A60C08A60DC3EF9DEE9C5008E47813
:1009D00063F608F68011785DE6FC08E6FDC3EF9D3E
:1009E0007864F6EE9C18F612142F5480785F760027
:1009F00008F6AF1E1216D17861760008A607786057
:100A0000E6184670211214415005AF1E0216EBD3B2
:100A1000785A1214444036AF1E1210A4EF602E1202
:100A2000142F4480F0227860E664011846701ED3CB
:100A30001214424005AF1E0216E3121441500EAFCD
:100A40001E1211A5EF600612142F547FF022121609
:100A50002C7871E6FF64036018EF64016013EF64A3
:100A6000026003020AF49000B1E064016003020A2C
:100A7000F4E49000B1F07871E6FF64026005EF6481
:100A8000017040121345EF702CE513B4012C053AA8
:100A9000E53AAE397002053914C39517EE95164044
:100AA0001978717603E4F539F53A121741121727D0
:100AB000120C278005E4F539F53A7871E6B40103A4
:100AC0000215027871E664037087121502120AF5A6
:100AD000EF601B12173E121721E50878716005764A
:100AE00002020A517601E4F539F53A020A51121769
:100AF00041020A5122E4F51D1214698E1B8F1C78E5
:100B000073E6250DFF18E6350CFED3E51C9FE51BAB
:100B10009E40037F0122E4FFEFC3951A504DEF255D
:100B2000E0246DF8E6FC08E6FD7872E6FA08E6FBDC
:100B3000D3ED9BEC9A4004051D8009C3ED9BEC9A14
:100B40005002151DD3E51D64809480400A78730619
:100B5000E6187014068011C3E51D64809480500867
:100B60007873E616187001160F80ADE51A14FFEFC2
:100B7000D394004019EF25E0246BF8E6FC08E6FD6D
:100B8000EF25E0246DF8A60408A6051F80E1786D26
:100B9000A61B08A61C7F0022121733787FE4F6D824
:100BA000FD758179020BE2020D0BE493A3F8E49347
:100BB000A34003F68001F208DFF48029E493A3F850
:100BC0005407240CC8C333C4540F4420C8834004C2
:100BD000F456800146F6DFE4800B01020408102081
:100BE0004080900FE1E47E019360BCA3FF543F304E
:100BF000E509541FFEE493A360010ECF54C025E025
:100C000060A840B8E493A3FAE493A3F8E493A3C8DC
:100C1000C582C8CAC583CAF0A3C8C582C8CAC5836D
:100C2000CADFE9DEE780BEE4F51FF51EF51DF51C01
:100C30007872F608F6F51BE51BC3951A50131214CB
:100C400069E51B25E0246DF8A60608A607051B80AC
:100C5000E6E4F51BE51BC3951A5027E51B25E024A8
:100C60006DF8E6FE08E6FFE4FCFDE51F2FF51FE545
:100C70001E3EF51EED351DF51DEC351CF51C051B46
:100C800080D2AF1AAB07E4FAF9F8AF1FAE1EAD1D64
:100C9000AC1C1202657872A60608A60722F075F051
:100CA00012EFA4240CF582E5F03400F5832275F0F0
:100CB00012A42404F582E5F03400F58375F00222D5
:100CC00075F012A42400F582E5F034002290000BA8
:100CD00075F012EF120348EE75F012A42583F58328
:100CE000E02224FFFFE434FFFEEF25E0FFEE33FEB9
:100CF000082275F012A4240AF582E5F03400F58389
:100D000022EF120348ECF0A3EDF0221212D61214D7
:100D10004D43A8A0120A4E1215A41216797F037E25
:100D200000121691EF6002C2807F047E00121691BD
:100D3000EF6002C2A77F057E00121691EF6002C22B
:100D4000967F067E00121691EF6002C2977F077EA3
:100D500000121691EF6002C2907F087E0012169179
:100D6000EF60B1D290D297D296D2A7D280E4F5FCB0
:100D700080A2E47856F67856E6FFC3950B505812D9
:100D800010677858A607E418F67857E6FFC394036F
:100D9000504075F005EFA42485F582E5F03414F594
:100DA00083E493FF08E6B507247856E6FF08E67566
:100DB000F005A42487F582E5F03414F583740193DB
:100DC000FA740293F5828A831203588005785706D5
:100DD00080B7785606809F22E4F51DE51DC3950B6C
:100DE0005029E4FDAF1D121287E51D121034EEF0FC
:100DF000A3EFF075F012E51DA42410F582E5F034A0
:100E000000F583E4F0A3F0051D80D0E50BC3940446
:100E100050057879768022E50BC3940850057879DF
:100E2000764022E50BC3941050057879762022E5B0
:100E30000BC3942078795003761022760822E47848
:100E400059F6F9EF120CC0AF8208F608A607E51AAA
:100E5000147859F67859E6FFD39400402DEF120C20
:100E6000E2E6FA08E6FB8A832FF582E5833EF58306
:100E7000E0FEA3E0FF8B828A837859E675F00212C8
:100E80000348EEF0A3EFF01680CA785AE6FE08E6B3
:100E9000F5828E83ECF0A3EDF0AF012285A91CE56D
:100EA0002E704EE5AE700675AEA575AEF17D087F6D
:100EB000051215EC7D077F061215EC7D807F04126C
:100EC00015EC75A9747DC07F041215EC7F407E057A
:100ED000EF1F70011EEF4E70F77DC07F041215ECFE
:100EE00075B520851CA9E5A930E7FB7533C0752EC3
:100EF0000122E4F51BF51CFFFE121691EF70127F24
:100F000001FE121691EF70097F02FE121691EF603A
:100F100032E4FD1212FBFAA3E0FBC39FEA9E4012EB
:100F200090000812130D121316251CF51CE4351B36
:100F3000F51B0DBD03DDD3E51C941EE51B9400409D
:100F400002D322C3228F1DE4FFEFC3951A5018E588
:100F50001D120CC0F58375F002120D01E51D120C77
:100F6000AE120D010F80E275F012E51DA4240BF501
:100F700082E5F03400F583E4F0E50FC4F854F0C8DE
:100F8000E510C4540F48FFE51D120CF2EFF0AF1D41
:100F90000213698F1D8D1EED3395E0FCD3ED951A7C
:100FA0007480F86C98401975F012EFA424FEF58255
:100FB000E5F034FFF58375F002E51A120348801B53
:100FC000ED25E0FFEC33FE75F012E51D120CC3F5C4
:100FD00083E5822FF582E5833EF583E0FEA3E0FF03
:100FE0002202350000023700004100B100012E004E
:100FF000010B09011A0202091388010E02021400F2
:101000001402180014021600640108010113000202
:10101000111388020C0BB8020F2EE00272000002BE
:10102000390000026B000000EEF0A3EFF09000A288
:10103000A3E0FF2275F012A4240EF582E5F034003F
:10104000F58322E0FF9000A5E09F9000A4E09E229F
:10105000FC9000A5E09D9000A4E09C22A3E09000FD
:101060000E75F0120203488F1DE4FF75F005EFA422
:101070002486F582E5F03414F583E493FDC3786C9F
:10108000E69D18E69400501175F005EFA42485F54F
:1010900082E5F03414F58380070FBF03CE90148FE0
:1010A000E493FF22120C9EE0FEC4540FFD640F6017
:1010B000010D120C9EEE540F120C9DE0FEEDC45477
:1010C000F0FCEE4CF0ED640F6004EDB50E0A120C6E
:1010D0009EE0540FF07F01227F0022E51C75F01284
:1010E000A42408F582E5F03400F5832275F012E5BA
:1010F0001CA4240DF582E5F03400F5832275F0126E
:10110000E51CA4240EF582E5F03400F583E022E42A
:10111000FFEFC3950B500C75F012EF12156DE4F054
:101120000F80EEE50FC4F854F0C868FEE510C45413
:101130000F48FFD394FFEE94007878400376FF22A7
:10114000A60722E47856F67856E6FFC3950B50259D
:101150001212027857EEF6FC08EFF6FD7856E6FF1D
:10116000120E3E7856E6FF08E6FC08E6FD12000384
:1011700078560680D222AFB5EF30E203753201EF28
:1011800030E303753101EF30E103753001EF30E4F6
:10119000047FFFDFFE75B520E5326006E4F5327F9F
:1011A00001227F0022120C9EE0FE540FFD640F60AE
:1011B000010D120C9EEE54F0120C9DE04DF0ED640A
:1011C0000F6004EDB50E0A120C9EE054F0F07F01A2
:1011D000227F0022E4FFEFC3950B5025EF1214315C
:1011E000547FF075F012EFA4240CF582E5F0340082
:1011F000F583E4F075F012EF12143454BFF00F8051
:10120000D522AE07EE75F003A4243BF8E6FF1217D3
:101210003BEE75F003A4243DF8E6FF121715EE75BA
:10122000F003A4243CF8E6FF12171B12146922AF46
:10123000A7E4F5A79000ABE5A9F075A914E5A930DE
:10124000E7FB9000ACE5F1F0A3E5F2F0A3E5E2F0F6
:10125000E4F5F1F5F275E2C08FA7228F218E208D83
:101260001F8C1E75AC14E53354F7F5AD0075AC1842
:101270008521AD008520AD00851FAD00851EAD0028
:1012800075AC148533AD22EDD3951A75F012EF408D
:1012900012A42402F582E5F03400F58375F002E52E
:1012A0001A8004120CB1ED120348E0FEA3E0FF2205
:1012B000EF7805C333CE33CED8F9FF7C007D2D12F5
:1012C0000088AE07EE65367002E53560081215F449
:1012D0007535008F362285A71B12166D1217011265
:1012E00016F31216FA1215B61216B41213AF12161E
:1012F000C812173712170F851BA72275F012ED9031
:101300000008120348E0FEA3E0FF90000475F0120D
:10131000ED120348E022FEA3E0FFC3EB9FEA9E220A
:1013200043F14E43F23E43A44E5380B153F1B153C7
:10133000A4B143804E43A53E5390C153F2C153A57F
:10134000C143903E22E4F51DF51BF51CE51CC39539
:101350000B5013AF1C7E00121691BF0105751D01C5
:101360008004051C80E6AF1D2290174F12155A24E9
:101370003DF8A60690174612155A243BF8A606EF2C
:1013800090175812155B243CF8A60622E47856F60E
:101390007856E6FFC39402501575F003EFA4249429
:1013A000F582E5F0341412166078560680E2227554
:1013B000AC0675AD07E5AC20E7FB75AC0875AD1460
:1013C000E5AC20E7FB75AC0475AD80E5AC20E7FB30
:1013D00022AFA7E4F5A79000ABE0F5A9E5A930E7B7
:1013E000FB9000ACE0F5F1A3E0F5F2A3E0F5E28FAD
:1013F000A7228E1C8F1D1214A0AE1CAF1D7C7C7DFD
:101400001A12035AE47BE87A03F9F8120265021211
:101410005BE4F51C75F003E51CA4249AF582E5F065
:101420003414121660051CE51CC3940240E622E544
:101430001E75F012A4240BF582E5F03400F583E06C
:1014400022C3785C7964E79619E7189622E59154EF
:10145000045391FB7595F975947D7593F975927D9B
:10146000439104429143E6802212156375CE0175C3
:10147000B540E5B030E5FB85EE2C85ED2DE4F5B00B
:10148000AE2CAF2D220105FF169D020AFF161E038A
:1014900078FF161EFF07F1FF0387FF110FFF0DD81E
:1014A00075AC10E4F5AD00F5AD00F5AD00F5AD009F
:1014B0001215E512170820E1FA22E4F5AA53F3C049
:1014C00043F340F5FEF5FD121563E5B030E5FBE4AE
:1014D000F5B0221215191200721208D31217441215
:1014E00014111211D41216460216BE1200F3C39440
:1014F00068E5F09401400A74FE75F0981201568078
:10150000EA2212122F53B6BFE5A930E7FB75B58C5E
:1015100043B6401211760213D1E4F51CE51CC395C5
:101520000B500CE4FDFCAF1C120F45051C80ED2296
:1015300075B08875D24E75D33E75AA8A53AFF843FD
:10154000AF02E4F5F322E4F51BE51BC3950B50094C
:10155000AF1B12070A051B80F022EF93FEEF75F018
:1015600003A42275B08853B0DF43B01022A4240B2B
:10157000F582E5F03400F583227859E6FFE4FD2298
:101580001215D6120E9CAF19AE181213F27F1C0260
:1015900016021215D6120E9CAF15AE141213F27F5E
:1015A0001C02160212114312138C120D7212061431
:1015B00012174502154675A5C075F2C175D5FF75A0
:1015C000A70F759B0322C0E053917F0538E5387063
:1015D000020537D0E03275B520E4F534F532F53147
:1015E000F52FF53022E5334402FD7F04EF4410F57A
:1015F000AC8DAD22EF700453DABF22C374FF9FF5A8
:10160000FC22EF54FC4233E5334FFD7F040215EC1E
:10161000EF120CAEED120348EAF0A3EBF022AD0797
:10162000ED121034E0FEA3E0FF02099D121176EFE7
:1016300060069000B17401F02243F14E43F23E5334
:10164000F1B153F2C122E5087871B40103760222A8
:10165000760122EF120CF2E075F010A4FFAEF0223A
:10166000F583740193FA740293F9020354E4F5A725
:1016700053D9BFF5D943D84022120EF250061204B6
:10168000EC1212B022120CCD30E6037F01227F0053
:1016900022120CCD30E7037F01227F00228F1DE450
:1016A000FD121287AD1D02099DEF4490F5AC0000BC
:1016B00000AFAD22E4F5A775E3C075E201227865BD
:1016C00012032F000000002275A904E5A930E7FBF2
:1016D00022120C9EE0C4540FFF22E47B08FAF9F8B2
:1016E000020265120C9EE054F0F022120C9EE054AF
:1016F0000FF02253DF7F75DC082275F1B175D47FBE
:101700002253DF7F75DA42227F041216A9EF2212DC
:10171000172D0214D3EF5407F5AF22EF5407F5AAA3
:10172000221213200214BA12163902153012172190
:1017300002173E53D9BF2275B640228FAB22021545
:101740009202158022220A0B0C02010903060D07E2
:101750000707070707070707050505050505050529
:011760000583
:00000001FF
