:020000040000FA
:10000000020B988C2C8D2DE47859F608F6EF75F0DC
:1000100012A42404F9740035F008760108F608A645
:1000200001E51A14785AF6785AE6D39400402CE683
:10003000FD120D50860308E6FA08E6F98F828E83DA
:1000400012011EFFAEF075F002EDA4F58285F0837B
:10005000EE8FF01201AD785A1680CC785B860308DB
:10006000E6FA08E6F9E52C852DF012018E7859E6BE
:10007000FF22220215EAEF8DF0A4A8F0CF8CF0A4A5
:1000800028CE8DF0A42EFE22BC000BBE0029EF8DE1
:10009000F084FFADF022E4CCF875F008EF2FFFEE0E
:1000A00033FEEC33FCEE9DEC984005FCEE9DFE0F1C
:1000B000D5F0E9E4CEFD22EDF8F5F0EE8420D21C77
:1000C000FEADF075F008EF2FFFED33FD40079850BF
:1000D00006D5F0F222C398FD0FD5F0EA22C5F0F85C
:1000E000A3E028F0C5F0F8E582158270021583E0E0
:1000F00038F022BB010A89828A83E0F5F0A3E0226E
:10010000500687F009E71922BBFE07E3F5F009E383
:10011000192289828A83E493F5F074019322BB014A
:1001200010E58229F582E5833AF583E0F5F0A3E056
:10013000225009E92582F886F008E622BBFE0AE98A
:100140002582F8E2F5F008E222E5832AF583E993B7
:10015000F5F0A3E99322BB010789828A830200DDBF
:10016000500B09C5F027F7C5F01937F722BBFE0D74
:1001700009F8E325F0F3C5F019E338F322F8898292
:100180008A8374019325F0C5F0F8E4933822BB010B
:100190000A89828A83F0E5F0A3F0225006F709A7C6
:1001A000F01922BBFE06F3E5F009F31922F8BB01B2
:1001B00011E58229F582E5833AF583E8F0E5F0A3BD
:1001C000F0225009E92582C8F608A6F022BBFE09F4
:1001D000E92582C8F2E5F008F222E88FF0A4CC8B82
:1001E000F0A42CFCE98EF0A42CFC8AF0EDA42CFCED
:1001F000EA8EF0A4CDA8F08BF0A42DCC3825F0FD2C
:10020000E98FF0A42CCD35F0FCEB8EF0A4FEA9F024
:10021000EB8FF0A4CFC5F02ECD39FEE43CFCEAA470
:100220002DCE35F0FDE43CFC2275F008758200EF20
:100230002FFFEE33FECD33CDCC33CCC58233C58218
:100240009BED9AEC99E58298400CF582EE9BFEEDD1
:100250009AFDEC99FC0FD5F0D6E4CEFBE4CDFAE4A0
:10026000CCF9A88222B800C1B90059BA002DEC8B94
:10027000F084CFCECDFCE5F0CBF97818EF2FFFEE70
:1002800033FEED33FDEC33FCEB33FB10D703994029
:1002900004EB99FB0FD8E5E4F9FA227818EF2FFF69
:1002A000EE33FEED33FDEC33FCC933C910D7059BAB
:1002B000E99A4007EC9BFCE99AF90FD8E0E4C9FA07
:1002C000E4CCFB2275F010EF2FFFEE33FEED33FD93
:1002D000CC33CCC833C810D7079BEC9AE899400AB6
:1002E000ED9BFDEC9AFCE899F80FD5F0DAE4CDFB34
:1002F000E4CCFAE4C8F922E8600FEFC333FFEE3331
:10030000FEED33FDEC33FCD8F122E6FB08E6F908FC
:10031000E6FA08E6CBF822ECF608EDF608EEF60869
:10032000EFF622ECF0A3EDF0A3EEF0A3EFF022D075
:1003300083D082E493F608740193F608740293F66E
:1003400008740393F6740473A42582F582E5F035EE
:1003500083F583228A838982E473EC8EF0A4CCC572
:10036000F0CCCDF8EFA4CEC5F02DFDE43CFCE8A424
:100370002EC8C5F03DFDE43CFCEFA4FFE5F028FEEF
:10038000E43DFDE43CFC22E49000A2F0A3F09000E8
:10039000A2E0FCA3E0FDC3950B7480F8EC648098A8
:1003A00040030204EBAF05E4FD120F9A9000A41283
:1003B000102F7D01120F9A9000A612102F1216779F
:1003C0009000A9EEF0A3EFF09000A6E0FEA3D312F8
:1003D000104A402B9000A9E0FEA3E0FF9000A7E0A8
:1003E0002FFD9000A6E03ED312105740129000A7B8
:1003F000E02FFF9000A6E03E9000A4F0A3EFF09065
:1004000000A6E0FEA3C312104A502D9000A9E0FE02
:10041000A3E0FFC39000A7E09FFD9000A6E09EC36D
:100420001210575013C39000A7E09FFF9000A6E062
:100430009E9000A4F0A3EFF0E49000A6F0A31210A9
:100440003312106E9000A8EFF09000A2E0FE1210A0
:1004500063EE75F012A42583F583E0FCA3E0FDA311
:10046000E0FEA3E0FFC0077879E6FBE4FAF9F8D0F4
:1004700007120265C004A905AA06AB077879E6242D
:10048000FFFFE434FFFEE4FCFDD0001201DAC004FB
:10049000C005C006C0077879E6FBE4FAF9F89000D9
:1004A000A4E0FCA3E0FDA3E0FEA3E0FF120265D000
:1004B00003D002D001D000EB2FFFEA3EFEE93DFD64
:1004C000E83CFC9000A2E0FA121063EA75F012A476
:1004D0002583F5831203239000A3E004F060030258
:1004E000038E9000A2E004F002038E22E4F51BF5D7
:1004F0001CFD121302FAA3E0FBC39FEA9E500CED11
:1005000025E0241DF8E4F608F6801A75F012ED9047
:100510000008120348E012131DFFED25E0241DF82A
:10052000760008A6070DBD03C9C3E51E9522E51D8B
:1005300095214024E51E9520E51D951F401A752341
:100540000075242875250075263C7527007528142C
:10055000752900752A3C8047C3E522951EE5219543
:100560001D4024E5229520E521951F401A752300A2
:1005700075243C7525007526147527007528287587
:100580002901752A2C8018752300752414752500FF
:1005900075262875270075283C752900752AB4AC86
:1005A00025AD26AE1FAF20120076AA06AB07AC23FE
:1005B000AD24AE1DAF1E120076EF2BFBEE3AFAAC67
:1005C00027AD28AE21AF22120076EF2BFFEE3AFEC8
:1005D000E51E2520FDE51D351FFCE5222DFDE5214D
:1005E0003CFC1200888E1B8F1C7C007D061200765E
:1005F000EF2488F51CEE34FFF51BE52A251CF51CBD
:10060000E529351BF51B7B007A00791B12150FAE0F
:100610001BAF1C22E47869F608F67856F67856E6A1
:10062000FFC3950B40030206AAE4FD120F9A785708
:10063000A60608A6077856E6FF7D01120F9A78599C
:10064000EEF608EFF67857E6FC08E6FDD39FEC9E41
:10065000400EED785A96795CF7EC189619F78012EF
:10066000C3795AE7785896FF19E71896785BF60829
:10067000A6077856E6FF121677E4FCFDC004A9052C
:10068000AA06AB07785BE6FE08E6FF7D6412035A14
:10069000D000120265785BEEF608EFF6786A26F66F
:1006A00018EE36F678560602061DE47869F608F666
:1006B0007F07FEFDFC786512030A1201DA121709A2
:1006C000C004C005C006C0077869E6FE08E6FFE47E
:1006D000FCFD78101202F7121709D003D002D001E6
:1006E000D000EB2FFFEA3EFEE93DFDE83CFC7865DB
:1006F000120317E50BFD7C007865E6FE08E6FF12A5
:100700000088786BA60608A607228F1C785612036D
:100710002F000000001210E2E0FEA3E0785AA606C7
:1007200008F6AF1C7E001216A9EF60030207F0AFB7
:100730001C12106EEF6401600E121104FEA3E0782B
:100740005CA60608F6800EE4FDAF1C120F9A785CDA
:10075000A60608A607785AE6FE08E6FF08E6FC08A3
:10076000E6FDD39FEC9E40091210F3E0240AF080CE
:100770000EC3ED9FEC9E50071210F3E024F6F0122A
:1007800010F3E0FFD3648094E4400D1210E2E475AE
:10079000F0011200DD0207EBC3EF6480941C50509F
:1007A000AF1C12106EEF64017032E509C313FEE551
:1007B0000A13FF1210E2E0FCA3E0C39FFFEC9EFED1
:1007C000121104FCA3E0FDC39FEC9E75F012E51C22
:1007D000500F1210E7ECF0A3EDF0800F75F012E56A
:1007E0001C1210E774FFF5F01200DD1210F3E4F0B4
:1007F00022E47859F67859E6FFC3950B40030208C6
:10080000C875F012EFA42408F582E5F03400F583F2
:10081000E0FEA3E0785CA60608F618E6FE08E6FF10
:10082000250AFDE5093EFC785AF608EDF6C39FEC73
:100830009E50097859E675F0120208BD1208C9C029
:1008400006C00712159D120F9AAC06AD07D007D04F
:1008500006C3ED9FFFEC9EFE785EF608EFF6C3EE52
:1008600064809480501418E6FE08E6FF7CFF7DFF4C
:10087000120076785EA60608A6077878E6FFC378A9
:100880005FE69F7480F5F0186695F0500D1208C968
:10089000AA06AB0712159D12163412159D12128E60
:1008A000785AE6FC08E6FDD3EF9DEE9C7859E67594
:1008B000F0124009121591E04440F08005121591A4
:1008C000E4F07859060207F5227859E6FF7D011217
:1008D000128E22E4F51EF51FF523F522F521F520F1
:1008E000F527F526F525F524F51CE51CC3950B40E9
:1008F0000302099CE4F52AF52B74FFF528F529E499
:10090000F527F526F525F524F51DE51D25E02474CC
:10091000F8E4F608F6051DE51DB402EEE4F51DAF9A
:100920001C121209AB07AA06E51D25E02474F8A6DF
:100930000208A603E4FCFDE5272FF527E5263EF592
:1009400026ED3525F525EC3524F524051DE51DC3DB
:10095000940240CBAF27AE26AD25AC24E47B02FA4F
:10096000F9F81202658F278E268D258C24E51C123E
:1009700010E4EEF0A3EFF0E4F51DE51DC3951A5069
:1009800016AC26AD27AF1C120E45AC26AD27AF1C0A
:10099000120003051D80E3051C0208EA228D1E7566
:1009A000F012EDA42408F582E5F03400F583E0FCB4
:1009B000A3E0FD785DECF608EDF67859A61108A6DF
:1009C0001208A60C08A60DC3EF9DEE9C5008E47813
:1009D00063F608F68011785DE6FC08E6FDC3EF9D3E
:1009E0007864F6EE9C18F61214365480785F760020
:1009F00008F6AF1E1217007861760008A607786027
:100A0000E6184670211214485005AF1E02171AD37B
:100A1000785A12144B4036AF1E1210ABEF602E12F4
:100A200014364480F0227860E664011846701ED3C4
:100A30001214494005AF1E021712121448500EAF8F
:100A40001E1211ACEF6006121436547FF0221216FB
:100A5000507871E6FF64036018EF64016013EF647F
:100A6000026003020AF49000B1E064016003020A2C
:100A7000F4E49000B1F07871E6FF64026005EF6481
:100A800001704012134CEF702CE513B4012C053AA1
:100A9000E53AAE397002053914C39517EE95164044
:100AA0001978717603E4F539F53A12177012175672
:100AB000120C278005E4F539F53A7871E6B40103A4
:100AC0000215267871E664037087121526120AF55E
:100AD000EF601B12176D121750E5087871600576EC
:100AE00002020A517601E4F539F53A020A51121769
:100AF00070020A5122E4F51D12148D8E1B8F1C7892
:100B000073E6250DFF18E6350CFED3E51C9FE51BAB
:100B10009E40037F0122E4FFEFC3951A504DEF255D
:100B2000E0246DF8E6FC08E6FD7872E6FA08E6FBDC
:100B3000D3ED9BEC9A4004051D8009C3ED9BEC9A14
:100B40005002151DD3E51D64809480400A78730619
:100B5000E6187014068011C3E51D64809480500867
:100B60007873E616187001160F80ADE51A14FFEFC2
:100B7000D394004019EF25E0246BF8E6FC08E6FD6D
:100B8000EF25E0246DF8A60408A6051F80E1786D26
:100B9000A61B08A61C7F0022121762787FE4F6D8F5
:100BA000FD758179020BE2020C9DE493A3F8E493B6
:100BB000A34003F68001F208DFF48029E493A3F850
:100BC0005407240CC8C333C4540F4420C8834004C2
:100BD000F456800146F6DFE4800B01020408102081
:100BE0004080900FE8E47E019360BCA3FF543F3047
:100BF000E509541FFEE493A360010ECF54C025E025
:100C000060A840B8E493A3FAE493A3F8E493A3C8DC
:100C1000C582C8CAC583CAF0A3C8C582C8CAC5836D
:100C2000CADFE9DEE780BEE4F51FF51EF51DF51C01
:100C30007872F608F6F51BE51BC3951A50131214CB
:100C40008DE51B25E0246DF8A60608A607051B8088
:100C5000E6E4F51BE51BC3951A5027E51B25E024A8
:100C60006DF8E6FE08E6FFE4FCFDE51F2FF51FE545
:100C70001E3EF51EED351DF51DEC351CF51C051B46
:100C800080D2AF1AAB07E4FAF9F8AF1FAE1EAD1D64
:100C9000AC1C1202657872A60608A607221212DDA5
:100CA00012147143A8A0120A4E1215C812169D7F85
:100CB000037E001216B5EF6002C2807F047E001230
:100CC00016B5EF6002C2A77F057E001216B5EF6071
:100CD00002C2967F067E001216B5EF6002C2977FB1
:100CE000077E001216B5EF6002C2907F087E0012E8
:100CF00016B5EF600DD290D297D296D2A7D280E4EB
:100D0000F5FC7F647E00121454809BF075F012EFA6
:100D1000A4240CF582E5F03400F5832275F012A4CA
:100D20002404F582E5F03400F58375F0022275F0B5
:100D300012A42400F582E5F034002290000B75F037
:100D400012EF120348EE75F012A42583F583E0221A
:100D500024FFFFE434FFFEEF25E0FFEE33FE082220
:100D600075F012A4240AF582E5F03400F58322EF31
:100D7000120348ECF0A3EDF022E47856F67856E63C
:100D8000FFC3950B505812106E7858A607E418F65A
:100D90007857E6FFC39403504075F005EFA424A9EB
:100DA000F582E5F03414F583E493FF08E6B50724F3
:100DB0007856E6FF08E675F005A424ABF582E5F069
:100DC0003414F583740193FA740293F5828A8312C2
:100DD0000358800578570680B7785606809F22E42E
:100DE000F51DE51DC3950B5029E4FDAF1D12128EB4
:100DF000E51D12103BEEF0A3EFF075F012E51DA417
:100E00002410F582E5F03400F583E4F0A3F0051D2D
:100E100080D0E50BC3940450057879768022E50BE9
:100E2000C3940850057879764022E50BC39410509E
:100E3000057879762022E50BC394207879500376E3
:100E40001022760822E47859F6F9EF120D2EAF82BF
:100E500008F608A607E51A147859F67859E6FFD37C
:100E60009400402DEF120D50E6FA08E6FB8A832F1E
:100E7000F582E5833EF583E0FEA3E0FF8B828A8363
:100E80007859E675F002120348EEF0A3EFF01680F1
:100E9000CA785AE6FE08E6F5828E83ECF0A3EDF000
:100EA000AF012285A91CE52E704EE5AE700675AE29
:100EB000A575AEF17D087F051216107D077F06121D
:100EC00016107D807F0412161075A9747DC07F04F2
:100ED0001216107F407E05EF1F70011EEF4E70F757
:100EE0007DC07F0412161075B520851CA9E5A930B8
:100EF000E7FB7533C0752E0122E4F51BF51CFFFEE0
:100F00001216B5EF70127F01FE1216B5EF70097F51
:100F100002FE1216B5EF6032E4FD121302FAA3E0EE
:100F2000FBC39FEA9E401290000812131412131D77
:100F3000251CF51CE4351BF51B0DBD03DDD3E51C9D
:100F4000941EE51B94004002D322C3228F1DE4FFB0
:100F5000EFC3951A5018E51D120D2EF58375F0029A
:100F6000120D6FE51D120D1C120D6F0F80E275F052
:100F700012E51DA4240BF582E5F03400F583E4F0BE
:100F8000E50FC4F854F0C8E510C4540F48FFE51D40
:100F9000120D60EFF0AF1D0213708F1D8D1EED332B
:100FA00095E0FCD3ED951A7480F86C98401975F0B3
:100FB00012EFA424FEF582E5F034FFF58375F0020C
:100FC000E51A120348801BED25E0FFEC33FE75F0B7
:100FD00012E51D120D31F583E5822FF582E5833E82
:100FE000F583E0FEA3E0FF22023500000237000097
:100FF0004100B100012E00010B09011A0202091380
:1010000088010E0202140014021800140216006473
:1010100001080101130002111388020C0BB8020F22
:101020002EE00272000002390000026B000000EEA8
:10103000F0A3EFF09000A2A3E0FF2275F012A42429
:101040000EF582E5F03400F58322E0FF9000A5E084
:101050009F9000A4E09E22FC9000A5E09D9000A43B
:10106000E09C22A3E090000E75F0120203488F1D51
:10107000E4FF75F005EFA424AAF582E5F03414F539
:1010800083E493FDC3786CE69D18E69400501175D7
:10109000F005EFA424A9F582E5F03414F583800768
:1010A0000FBF03CE9014B3E493FF22120D0CE0FEA9
:1010B000C4540FFD640F60010D120D0CEE540F129D
:1010C0000D0BE0FEEDC454F0FCEE4CF0ED640F604F
:1010D00004EDB50E0A120D0CE0540FF07F01227FD3
:1010E0000022E51C75F012A42408F582E5F0340016
:1010F000F5832275F012E51CA4240DF582E5F03489
:1011000000F5832275F012E51CA4240EF582E5F0AB
:101110003400F583E022E4FFEFC3950B500C75F02B
:1011200012EF121591E4F00F80EEE50FC4F854F0C1
:10113000C868FEE510C4540F48FFD394FFEE940036
:101140007878400376FF22A60722E47856F6785690
:10115000E6FFC3950B50251212097857EEF6FC08EE
:10116000EFF6FD7856E6FF120E457856E6FF08E6E4
:10117000FC08E6FD12000378560680D222AFB5EFD8
:1011800030E203753201EF30E303753101EF30E1F6
:1011900003753001EF30E4047FFFDFFE75B520E515
:1011A000326006E4F5327F01227F0022120D0CE04E
:1011B000FE540FFD640F60010D120D0CEE54F01281
:1011C0000D0BE04DF0ED640F6004EDB50E0A120D4D
:1011D0000CE054F0F07F01227F0022E4FFEFC39582
:1011E0000B5025EF121438547FF075F012EFA42441
:1011F0000CF582E5F03400F583E4F075F012EF129F
:10120000143B54BFF00F80D522AE07EE75F003A457
:10121000243BF8E6FF12176AEE75F003A4243DF8AC
:10122000E6FF121744EE75F003A4243CF8E6FF1223
:10123000174A12148D22AFA7E4F5A79000ABE5A9D9
:10124000F075A914E5A930E7FB9000ACE5F1F0A337
:10125000E5F2F0A3E5E2F0E4F5F1F5F275E2C08F16
:10126000A7228F218E208D1F8C1E75AC14E5335460
:10127000F7F5AD0075AC188521AD008520AD008572
:101280001FAD00851EAD0075AC148533AD22EDD3C6
:10129000951A75F012EF4012A42402F582E5F0349D
:1012A00000F58375F002E51A8004120D1FED12039C
:1012B00048E0FEA3E0FF22EF7805C333CE33CED85B
:1012C000F9FF7C007D2D120088AE07EE65367002B6
:1012D000E53560081216187535008F362285A71B74
:1012E0001216911217301217221217291215DA123C
:1012F00016E31213B61216F712176612173E851B65
:10130000A72275F012ED900008120348E0FEA3E05A
:10131000FF90000475F012ED120348E022FEA3E0F6
:10132000FFC3EB9FEA9E2243F14E43F23E43A44E9D
:101330005380B153F1B153A4B143804E43A53E5302
:1013400090C153F2C153A5C143903E22E4F51DF56F
:101350001BF51CE51CC3950B5013AF1C7E00121629
:10136000B5BF0105751D018004051C80E6AF1D2277
:1013700090177E12157E243DF8A60690177512155B
:101380007E243BF8A606EF90178712157F243CF8C1
:10139000A60622E47856F67856E6FFC39402501566
:1013A00075F003EFA424B8F582E5F0341412168426
:1013B00078560680E22275AC0675AD07E5AC20E7ED
:1013C000FB75AC0875AD14E5AC20E7FB75AC047596
:1013D000AD80E5AC20E7FB22AFA7E4F5A79000AB1A
:1013E000E0F5A9E5A930E7FB9000ACE0F5F1A3E05A
:1013F000F5F2A3E0F5E28FA7228E1C8F1D1214C414
:10140000AE1CAF1D7C7C7D1A12035AE47BE87A0384
:10141000F9F8120265021262E4F51C75F003E51C8E
:10142000A424BEF582E5F03414121684051CE51CD4
:10143000C3940240E622E51E75F012A4240BF58247
:10144000E5F03400F583E022C3785C7964E796190F
:10145000E7189622AD07AC061216CDAB07AA061206
:1014600016CDC3EF9BFFEE9AFEC3EF9DEE9C40EFBF
:1014700022E59154045391FB7595F975947D75930C
:10148000F975927D439104429143E68022121587BB
:1014900075CE0175B540E5B030E5FB85EE2C85EDE8
:1014A0002DE4F5B0AE2CAF2D220105FF16C1020AC6
:1014B000FF16420378FF1642FF07F1FF0387FF1173
:1014C00016FF0DDF75AC10E4F5AD00F5AD00F5AD20
:1014D00000F5AD0012160912173720E1FA22E4F5E3
:1014E000AA53F3C043F340F5FEF5FD121587E5B0AE
:1014F00030E5FBE4F5B02212153D1200721208D35C
:101500001217731214181211DB12166A0216ED125A
:1015100000F3C39468E5F09401400A74FE75F098F6
:1015200012015680EA2212123653B6BFE5A930E7FF
:10153000FB75B58C43B64012117D0213D8E4F51C3F
:10154000E51CC3950B500CE4FDFCAF1C120F4C05C1
:101550001C80ED2275B08875D24E75D33E75AA8A6F
:1015600053AFF843AF02E4F5F322E4F51BE51BC3E8
:10157000950B5009AF1B12070A051B80F022EF9351
:10158000FEEF75F003A42275B08853B0DF43B010AE
:1015900022A4240BF582E5F03400F583227859E685
:1015A000FFE4FD221215FA120EA3AF19AE181213A2
:1015B000F97F1C0216261215FA120EA3AF15AE14EF
:1015C0001213F97F1C02162612114A121393120DE0
:1015D0007912061412177402156A75A5C075F2C146
:1015E00075D5FF75A70F759B0322C0E053917F054A
:1015F00038E53870020537D0E03275B520E4F534AF
:10160000F532F531F52FF53022E5334402FD7F0444
:10161000EF4410F5AC8DAD22EF700453DABF22C356
:1016200074FF9FF5FC22EF54FC4233E5334FFD7FFE
:1016300004021610EF120D1CED120348EAF0A3EBA2
:10164000F022AD07ED12103BE0FEA3E0FF02099D82
:1016500012117DEF60069000B17401F02243F14E4B
:1016600043F23E53F1B153F2C122E5087871B4015F
:1016700003760222760122EF120D60E075F010A4CD
:10168000FFAEF022F583740193FA740293F902031A
:1016900054E4F5A753D9BFF5D943D84022120EF927
:1016A00050061204EC1212B722120D3B30E6037FF3
:1016B00001227F0022120D3B30E7037F01227F00D1
:1016C000228F1DE4FD12128EAD1D02099D53E67F8F
:1016D000AF38AE3743E68022EF4490F5AC0000000F
:1016E000AFAD22E4F5A775E3C075E201227865127B
:1016F000032F000000002275A904E5A930E7FB22B2
:10170000120D0CE0C4540FFF22E47B08FAF9F80232
:101710000265120D0CE054F0F022120D0CE0540F93
:10172000F02253DF7F75DC082275F1B175D47F227A
:1017300053DF7F75DA42227F041216D8EF22121788
:101740005C0214F7EF5407F5AF22EF5407F5AA2215
:101750001213270214DE12165D02155412175002DE
:10176000176D53D9BF2275B640228FAB220215B632
:101770000215A422220A0B0C02010903060D070719
:1017800007070707070707050505050505050505FB
:00000001FF
