:020000040000FA
:10F6000002FA00010000001201000200000040C4E4
:10F6100010CAEA00010000000109022200010100F5
:10F6200080320904000001030000000921110100DB
:10F6300001221B00070581034000010600FF0901AC
:10F64000A101150026FF00750895040901810295A6
:10F650004009019102C012F7D18E218F22AD2D12E7
:10F66000F75E5026E52BB40207AF22AE2112F75603
:10F67000E52D601912F7B5AD07AF22AE2112FA479A
:10F680000522E52270EA052180E6752A412212F75B
:10F69000D18E218F2212F7D18E238F24E4F51BF512
:10F6A0001CD3E5229524E52195235014AF22AE21E9
:10F6B00012FA2612F7760522E52270E5052180E18F
:10F6C00012F7D1EF651C7003EE651B6003752A43CA
:10F6D0002212F798E4F51DF51E12F7A412F7B5EF04
:10F6E00024D0F52B752A40B40700506090F6F2251F
:10F6F000E073E100E112E11EE11EE123E128E142B5
:10F7000012F7D1EF64627003EE64286042752A42FA
:10F71000803D12F7B58F1D12F7B58F1E803112F69E
:10F7200056802C12F68E802712F7B5AD077EFB7F30
:10F73000FE12FA4712F7B5AD077EFB7FFF12FA47BC
:10F74000800D7F4012F7E012F8008003752A90AF19
:10F750002A12F7E08083438F02E4FD02FA2EC3EE03
:10F7600094F65010ED2FFFE43EFED3EF9400EE949C
:10F77000F6500122C322EFFEEE621B7D08E51BFC62
:10F78000E51C25E0F51CE51B33F51BEC30E70663B3
:10F790001C21631B10DDE62253D9BF43B69075A927
:10F7A0000302F810E4F508F52C12F7B5BF24F512A2
:10F7B000F7B58F2D22E52CB5080512F84980F674AF
:10F7C00000252CF582E43400F583E0FF052C152D8F
:10F7D0002212F7B58F2512F7B58F26AE25AF262258
:10F7E0008F0D750B04E50B600812F82D12F8498097
:02F7F000F42201
:10F8000075119B12F849E51170F9F8F675EF12229F
:10F810007D087F01314075D7E07D017F0731407D54
:10F820000C7F0B31407D8F7F0F3140016B7D017F5D
:10F830000E31402000127F11312EEF20E00A7F218F
:10F8400031C47D017F113140227F06312E8F277F09
:10F8500002312E8F28E52730E202116BE52730E3D5
:10F86000020511E52830E002117822E4F51AF50CC2
:10F87000D2007D017F012140E4FD7F0E31407F11E8
:10F88000312E8F29E52930E204E4FD2126E52930D7
:10F89000E4097D807F113140E4F50CE50C704CE506
:10F8A0002930E047315AE512547FFFBF211CE51390
:10F8B00024F7600C2408700D85190B750C01800E5F
:10F8C000750C028009750C03800471598F0CE50CCE
:10F8D000B403047D20800AE50C70047D4880027D1D
:10F8E000407F1131407F11312E8F29E50C6401706A
:10F8F0001FE52954137019E512547FFFBF21067FBD
:10F900002031C4800231807D0A7F113140E4F50C42
:10F91000E50CB40218E52930E0137F16312EAD074F
:10F920007F2031A37D487F113140E4F50C22E5961C
:10F9300020E7FBEF4480F596E59620E7FBAF9722A2
:10F94000E59620E7FB8F968D9722E59620E7FB8FC3
:10F950009622E59620E7FBAF97227F60312E8F122B
:10F9600031528F1331528F1531528F1431528F17FC
:10F9700031528F1631528F1931528F18E4FF214ABC
:10F980007F20314AE4FFEFC395195016E50A2FF5A1
:10F9900082E43509F583E493F597E59620E7FB0FBC
:10F9A00080E422EF44C0FF314AED6014315274000C
:10F9B0002508F582E43400F583EFF005081D80E9A1
:10F9C000E4FF214A314AE4FFE50B6011740D2FF882
:10F9D000E6F597E59620E7FB150B0F80EB22751FE8
:10F9E000017509F6750A0322751F017509F6750A76
:02F9F0000522EE
:10FA0000900000E493F46018E5EFB41008E864A5F2
:10FA1000600E020000540360F9780A20B0F4D8FBAD
:10FA200075812D02F6D18F828E83E493FF228F821F
:10FA30008E8343FF8075EF02851DB7851EB7438F08
:10FA400001EDF0538FFC22EDF4600312FA2E22E553
:10FA50001AB40214E512B4820FE5176481451670DA
:10FA60000730000221DE21E8E5174516700231E873
:10FA700022E51A6402702FE51264027029E517640A
:10FA80008145167021E5154514701BF51F7D017F1A
:10FA90000E3140E513B40106C2007D408004D2005F
:10FAA0007D107F11314022C3E5159480E514940048
:10FAB0005012E4F51FAD15FF3140E5157003F51A3E
:10FAC00022751A0122E4FF751F01E51424FE601659
:10FAD00024E1601C1460272421702D7509F6750A35
:10FAE0000790F60780137509F6750A197F22801BA7
:10FAF0007509F6750A2B90F62BE493FF800D7509B6
:10FB0000F6750A3B7F1B8003751F03EFC3951950E1
:10FB1000028F1922E51AB4020221DE31E822E51A29
:10FB2000602EC3E5159402E51494005023E4F51FFC
:10FB3000E5156017751A02C2007D017F0E31407D08
:10FB4000407F1131407D207F122140751A01D20083
:10FB500022E51AB4020231E822751F03E513B40C42
:10FB600000503D90FB6925E0736181618561A06172
:10FB70008561A06189618D61A061916195619961E3
:10FB80009D514F801B5171801751A7801351C58023
:10FB90000F7114800B711E800771518003E4F51FF3
:09FBA000E4FD7F0E3140AF1F228D
:03FBFD0090A5FFD1
:00000001FF
