:020000040000FA
:107A0000027E00010000001201000200000040C4DC
:107A100010CAEA0001000000010902220001010071
:107A20008032090400000103000000092111010057
:107A300001221B00070581034000010600FF090128
:107A4000A101150026FF0075089504090181029522
:107A50004009019102C0127BD18E218F22AD2D12DF
:107A60007B5E5026E52BB40207AF22AE21127B5677
:107A7000E52D6019127BB5AD07AF22AE21127E470E
:107A80000522E52270EA052180E6752A4122127B53
:107A9000D18E218F22127BD18E238F24E4F51BF50A
:107AA0001CD3E5229524E52195235014AF22AE2165
:107AB000127E26127B760522E52270E5052180E103
:107AC000127BD1EF651C7003EE651B6003752A43C2
:107AD00022127B98E4F51DF51E127BA4127BB5EFF4
:107AE00024D0F52B752A40B407005060907AF22517
:107AF000E07361006112611E611E612361286142B1
:107B0000127BD1EF64637003EE64286042752A42F1
:107B1000803D127BB58F1D127BB58F1E8031127A8E
:107B200056802C127A8E8027127BB5AD077E7F7F20
:107B3000FE127E47127BB5AD077E7F7FFF127E4728
:107B4000800D7F40127BE0127BF28003752A90AF9C
:107B50002A127BE08083438F02E4FD027E2EC3EE77
:107B6000947A5010ED2FFFE43EFED3EF9400EE9494
:107B70007A500122C322EFFEEE621B7D08E51BFC5A
:107B8000E51C25E0F51CE51B33F51BEC30E706632F
:107B90001C21631B10DDE62253D9BF43B69075A9A3
:107BA00003027C02E4F508F52C127BB5BF24F51224
:107BB0007BB58F2D22E52CB50805127C3B80F67431
:107BC00000252CF582E43400F583E0FF052C152D0B
:107BD00022127BB58F25127BB58F26AE25AF2622CC
:107BE0008F0D750B04E50B6008127C1F127C3B8027
:107BF000F42275119B127C3BE51170F9F8F675EFD4
:107C000012227D087F01B13275D7E07D017F07B177
:107C1000327D0C7F0BB1327D8F7F0FB132815D7D64
:107C2000017F0EB1322000127F11B120EF20E00A57
:107C30007F21B1B67D017F11B132227F06B1208F45
:107C4000277F02B1208F28E52730E202915DE527EA
:107C500030E3020511E52830E002916A22E4F51ACA
:107C6000F50CD2007D017F01A132E4FD7F0EB1321F
:107C70007F11B1208F29E52930E204E4FDA118E548
:107C80002930E4097D807F11B132E4F50CE50C70F8
:107C90004CE52930E047B14CE512547FFFBF211C71
:107CA000E51324F7600C2408700D85190B750C0181
:107CB000800E750C028009750C038004F1598F0C3D
:107CC000E50CB403047D20800AE50C70047D488037
:107CD000027D407F11B1327F11B1208F29E50C6404
:107CE00001701FE52954137019E512547FFFBF215D
:107CF000067F20B1B68002B1727D0A7F11B132E4F5
:107D0000F50CE50CB40218E52930E0137F16B1201C
:107D1000AD077F20B1957D487F11B132E4F50C228B
:107D2000E59620E7FBEF4480F596E59620E7FBAF6C
:107D30009722E59620E7FB8F968D9722E59620E720
:107D4000FB8F9622E59620E7FBAF97227F60B1205C
:107D50008F12B1448F13B1448F15B1448F14B144C5
:107D60008F17B1448F16B1448F19B1448F18E4FFB7
:107D7000A13C7F20B13CE4FFEFC395195016E50A02
:107D80002FF582E43509F583E493F597E59620E72E
:107D9000FB0F80E422EF44C0FFB13CED6014B1441E
:107DA00074002508F582E43400F583EFF005081D22
:107DB00080E9E4FFA13CB13CE4FFE50B6011740DE8
:107DC0002FF8E6F597E59620E7FB150B0F80EB22E1
:107DD000751F0175097A750A0322751F0175097AE5
:047DE000750A0522F9
:107E0000900000E493F46018E5EFB41008E864A56E
:107E1000600E020000540360F9780A20B7F4D8FB22
:107E200075812D027AD18F828E83E493FF228F8217
:107E30008E8343FF8075EF02851DB7851EB7438F84
:107E400001EDF0538FFC22EDF46003127E2E22E54B
:107E50001AB40214E512B4820FE517648145167056
:107E600007300002A1D0A1DAE51745167002B1DA99
:107E700022E51A6402702FE51264027029E5176486
:107E80008145167021E5154514701BF51F7D017F96
:107E90000EB132E513B40106C2007D408004D20069
:107EA0007D107F11B13222C3E5159480E514940052
:107EB0005012E4F51FAD15FFB132E5157003F51A48
:107EC00022751A0122E4FF751F01E51424FE6016D5
:107ED00024E1601C1460272421702D75097A750A2D
:107EE00007907A07801375097A750A197F22801B1B
:107EF00075097A750A2B907A2BE493FF800D75092A
:107F00007A750A3B7F1B8003751F03EFC3951950D9
:107F1000028F1922E51AB40202A1D0B1DA22E51AC1
:107F2000602EC3E5159402E51494005023E4F51F78
:107F3000E5156017751A02C2007D017F0EB1327D12
:107F4000407F11B1327D207F12A132751A01D2001B
:107F500022E51AB40202B1DA22751F03E513B40C4C
:107F600000503D907F6925E073E181E185E1A0E16A
:107F700085E1A0E189E18DE1A0E191E195E199E15F
:107F80009DD14F801BD1718017D1A78013D1C5809F
:107F90000FF114800BF11E8007F1518003E4F51FEF
:097FA000E4FD7F0EB132AF1F2297
:037FFD0090A5FF4D
:00000001FF
