:020000040000FA
:1000000002071475F003A424ADF9740335F0FA7BEC
:10001000FF780B7C007D007E007F03020146E493A5
:09002000FB740193FA74029322AF
:10002B000207A0C2DED2DE2202067DAD07AC0612AD
:10003B000C5BAB07AA06120C5BC3EF9BFFEE9AFEA1
:10004B00C3EF9DEE9C40EF22020855E47E06FDFCBB
:10005B00AB40AA3FA93EA83DC3020304E47E05FDC5
:07006B00FCA83DD3020304D1
:10007300020BE2E709F608DFFA8046E709F208DF38
:10008300FA803E88828C83E709F0A3DFFA8032E3AB
:1000930009F608DFFA8078E309F208DFFA8070884E
:1000A300828C83E309F0A3DFFA806489828A83E088
:1000B300A3F608DFFA805889828A83E0A3F208DF77
:1000C300FA804C80D280FA80C680D4806980F28026
:1000D30033801080A680EA809A80A880DA80E2804C
:1000E300CA803389828A83ECFAE493A3C8C582C8A1
:1000F300CCC583CCF0A3C8C582C8CCC583CCDFE90B
:10010300DEE7800D89828A83E493A3F608DFF9ECA6
:10011300FAA9F0EDFB2289828A83ECFAE0A3C8C531
:1001230082C8CCC583CCF0A3C8C582C8CCC583CC58
:10013300DFEADEE880DB89828A83E493A3F208DFC7
:10014300F980CC88F0EF60010E4E60C388F0ED2497
:1001530002B4040050B9F582EB2402B4040050AF9A
:1001630023234582239000C673BB010689828A83B9
:10017300E0225002E722BBFE02E32289828A83E463
:100183009322EF8DF0A4A8F0CF8CF0A428CE8DF0AD
:10019300A42EFE22BC000BBE0029EF8DF084FFAD20
:1001A300F022E4CCF875F008EF2FFFEE33FEEC33CA
:1001B300FCEE9DEC984005FCEE9DFE0FD5F0E9E4C6
:1001C300CEFD22EDF8F5F0EE8420D21CFEADF075E5
:1001D300F008EF2FFFED33FD4007985006D5F0F2FE
:1001E30022C398FD0FD5F0EA22BB010A89828A83D4
:1001F300E0F5F0A3E022500687F009E71922BBFEE1
:1002030007E3F5F009E3192289828A83E493F5F081
:1002130074019322BB010A89828A83F0E5F0A3F07B
:10022300225006F709A7F01922BBFE06F3E5F009F1
:10023300F3192275F008758200EF2FFFEE33FECD20
:1002430033CDCC33CCC58233C5829BED9AEC99E593
:100253008298400CF582EE9BFEED9AFDEC99FC0F23
:10026300D5F0D6E4CEFBE4CDFAE4CCF9A88222B8EB
:1002730000C1B90059BA002DEC8BF084CFCECDFC70
:10028300E5F0CBF97818EF2FFFEE33FEED33FDECFD
:1002930033FCEB33FB10D703994004EB99FB0FD8E6
:1002A300E5E4F9FA227818EF2FFFEE33FEED33FD84
:1002B300EC33FCC933C910D7059BE99A4007EC9B83
:1002C300FCE99AF90FD8E0E4C9FAE4CCFB2275F013
:1002D30010EF2FFFEE33FEED33FDCC33CCC833C824
:1002E30010D7079BEC9AE899400AED9BFDEC9AFC2A
:1002F300E899F80FD5F0DAE4CDFBE4CCFAE4C8F9D9
:1003030022EB9FF5F0EA9E42F0E99D42F0E89C451E
:10031300F022EC8EF0A4CCC5F0CCCDF8EFA4CEC582
:10032300F02DFDE43CFCE8A42EC8C5F03DFDE43C03
:10033300FCEFA4FFE5F028FEE43DFDE43CFC22EFE6
:100343004E6012EF60010EEDBB010B89828A83F0D0
:10035300A3DFFCDEFA2289F05007F709DFFCA9F0DE
:1003630022BBFEFCF309DFFCA9F0222052656420C6
:10037300200059656C6C6F770020426C7565200016
:1003830056696F6C6574004F72616E6765005768DC
:100393006974652000477265656E2000496E646963
:1003A300676F004C6F6164657200FF0000FFFF0020
:1003B3000000FF800080FFA500FFFFFF0080004BCF
:1003C3000082FF036EFF0375FF037CFF0383FF03BC
:1003D3008AFF0391FF0398FF039FFF03A6DDDDDC84
:1003E300DAD8D5D2CECAC5C0BBB5AFA9A29C958E6B
:1003F30088817A746D67615B554F4A45403B37325C
:100403002E2A2723201D1A181513110F0D0B0A0866
:1004130007060504030202010100000000000000BA
:100423000000010102020304050607080A0B0D0F71
:10043300111315181A1D2023272A2E32373B404546
:100443004A4F555B61676D747A81888E959CA2A92A
:10045300AFB5BBC0C5CACED2D5D8DADCDDDDDDDCB5
:10046300DAD8D5D2CECAC5C0BBB5AFA9A29C958EEA
:1004730088817A746D67615B554F4A45403B3732DB
:100483002E2A2723201D1A181513110F0D0B0A08E6
:10049300070605040302020101000000000000003A
:1004A3000000010102020304050607080A0B0D0FF1
:1004B300111315181A1D2023272A2E32373B4045C6
:1004C3004A4F555B61676D747A81888E959CA2A9AA
:1004D300AFB5BBC0C5CACED2D5D8DADCDD8F408E6E
:1004E3003F8D3E8C3DE4FFFE120059400FE47F4EEA
:1004F300FE12006A50067541010205C0E47FC47E06
:100503000A1200594010E47F5A7E0B12006A50060B
:100513007541020205C0E47F9A7E0912005940101A
:10052300E47F307E0A12006A50067541030205C05B
:100533007F27120056400FE47FBD7E0612006A50EB
:10054300057541048077E47F717E07120059400FDF
:10055300E47F077E0812006A5005754105805EE45A
:100563007F7C7E08120059400FE47F127E0912003F
:100573006A500575410680457FBE120056400FE460
:100583007F547E0712006A5005754107802FE47F70
:100593004E7E05120059400C7FE41200675005752A
:1005A30041088019E47F8B7E04120059400C7F219F
:1005B30012006750057541098003E4F541AF4122FC
:1005C3008F248D258B26AB27AA28A92912016C70AD
:1005D3000302067CF52AC3648094A04009D3E52A6C
:1005E300648094FE4003752A20E525D39478400265
:1005F3008073AF2AEF3395E0FE75F064E526A42FF0
:10060300F582E5F03EF583E58224ACF582E583349B
:100613000CF583E493F9E525131313541F2524FDE7
:10062300F8C000E6FA08E6FBE525120A2D8005CEA0
:10063300C313CE13D8F9F4FFEEF45AFEEB5FD000E8
:10064300A60608F6A805C000E6FA08E6FBE9FEE4FC
:10065300A804088005CEC313CE13D8F9120A37D0E5
:1006630000A60608F674012529F529E43528F5289E
:1006730074062525F5250205C922C0E0C0F0C08314
:10068300C082C0D075D000C000C001C002C003C08A
:1006930004C005C006C00775A720E5F854F0F4446C
:1006A3000F52F8AF9BEF30E34DE50F6031E5A1202A
:1006B300E02C300113851382851283E5A3F0051323
:1006C300E51370070512800385A342D50F0D300390
:1006D30005300002D2FA120B868003850F11E51054
:1006E300601430F911300209A814E2F5A30514804F
:1006F3000375A3001510D007D006D005D004D0038E
:10070300D002D001D000D0D0D082D083D0F0D0E0BE
:1007130032787FE4F6D8FD75815702075B0209E75B
:10072300E493A3F8E493A34003F68001F208DFF413
:100733008029E493A3F85407240CC8C333C4540F8B
:100743004420C8834004F456800146F6DFE4800B5E
:1007530001020408102040809008FBE47E019360AE
:10076300BCA3FF543F30E509541FFEE493A360018B
:100773000ECF54C025E060A840B8E493A3FAE493F5
:10078300A3F8E493A3C8C582C8CAC583CAF0A3C8A3
:10079300C582C8CAC583CADFE9DEE780BEC0E0C040
:1007A300F0C083C082C0D075D000C000C001C002B9
:1007B300C003C004C005C006C00753C87F53C8FBAD
:1007C300E515B401127515027F008516477B02E417
:1007D300FDFC1208A9800AE515B40305C28175154D
:1007E30000D007D006D005D004D003D002D001D06A
:1007F30000D0D0D082D083D0F0D0E032E4F5237F94
:1008030048120BAE9003C512001EF9120C4FC374AD
:10081300809FFFE49400C313EF13FDE50A75F00313
:10082300A424C5F582E43403F58312001E8B278AC2
:1008330028F5297F48AB231205C3E523243CFF7B1E
:10084300007A0079481209AD0523E523C3940840D3
:10085300AE22C0E0C0F0C083C082C0D075D000C05B
:1008630000C001C002C003C004C005C006C007C267
:10087300EDAFBDAEBE7C0C7DE4120315E47BFF7AC5
:1008830003F9F81202721204E08F1BD007D006D0CE
:1008930005D004D003D002D001D000D0D0D082D074
:1008A30083D0F0D0E03285470F8547108547118FFD
:1008B300148C128D13EB139201EBA2E19202AFA7FA
:1008C30075A720200403120BD1439A0453F80F5346
:1008D3009BEF439A08300305300002C2FA30F91542
:1008E300E5106011300209A814E2F5A30514800392
:1008F300E4F5A315108FA722011B00010A00030BC7
:10090300000000010E00010800010900C100C1033D
:10091300C104C101C102010F000110000111000156
:100923001400021200000115000116000217000056
:1009330002190000008F248D25E52560057525FF2C
:100943008003E4F5257F80120AFF8F26E52404FF48
:10095300120A838F27E4FF74282FF8A6250FBF10F0
:10096300F6E4F538F539FB7A0079267D14020A524C
:1009730085A723120CB4120C66120C70120C7A1297
:100983000C1C120C29120CC8120CC2120BF2120B03
:1009930040120C8412002E120C8E120C98120CA210
:1009A300120C36120CBB8523A7228F248B258A2693
:1009B30089277F80120AFF8F28E52404FF120A8308
:1009C3008F29782A7C007D00AB25AA26A9277E00E3
:1009D3007F10120146E4F53AF53BFB7A0079287D56
:1009E30014020A52120973D2AF120C0E120CAC127B
:1009F3000C5B8E218F22758701120C5BC3EF95224E
:100A0300FFEE9521FEC3EF940AEE940040E8120C2A
:100A13005B8E218F22120AAF120ADA80D9EFA4FF6C
:100A2300ED7A002FFFEA35F0FE225407FCE47EFF47
:100A3300A8040822FFEA4EFEEB4F22131313541FA0
:100A4300FFEDC39F22A60608F6740829F90D22E5D7
:100A53001570FC7515018D16AF057E00C002C0012F
:100A630078007C007DFED001D002120146AFA7E4DE
:100A7300F5A775CDFF75CCF4D28143C8048FA722A7
:100A8300EF540FC454F0FEEF54F0C4540F4EFF5410
:100A93003325E025E0FEEF54CC1313543F4EFF54AF
:100AA3005525E0FEEF54AAC3134EFF22120BC0EFED
:100AB300C39402400EEFD394095008EF24FEF50AC5
:100AC3001200031207FF20820D750A081207FF7830
:100AD3000076A575EF1222E50E9003E0931313132E
:100AE300541FF52378247C007D007B007A00790B6A
:100AF300120017852327120B20050E228F3C120CA0
:100B03005BC3EF951AFDEE9519FCD3ED94C8EC94F5
:100B1300004007433C408E198F1AAF3C22AF247E1E
:100B230000E527FBFD120C458FECAF25AD03120C3E
:100B3300438FFCAF26AD27120C438FEA22E5915475
:100B4300045391FB7595F87594067593F8759206A1
:100B5300439104429122E5D85440FFE5F75480FEC7
:100B630053D8BF53F77F22EF42D8EE42F722E4FF78
:100B7300FE12016C600C0FEF70010E09E970F20AAE
:100B830080EF22751503AFA7E4F5A775CDFF75CCEC
:100B9300FC43C8048FA722E4F523E4FDAF23120925
:100BA300380523E523C3948040F0229000107A0097
:100BB300A9077B007D00AE83AF82020342120C00C3
:100BC300E4FEEF65096002AE078F09AF0622E5A1D7
:100BD300A2E69203E5F8540C24FF9200D20422C04B
:100BE300E053917F0518E51870020517D0E032AF86
:100BF30088758800758C01758A018F8822AF1BE484
:100C0300FEEFB50801FE8F08AF0622C281D2A37F93
:100C13000A7E00120036020B9AE4F5A775E34075CD
:100C2300E10275E2032275BB0F75BC3953E8F84343
:100C3300E8812275A20B43A14053F8F343F8012244
:100C43007E007C001201857DFF020197120B71EF7C
:100C530075F006A42402FF2253E67FAF18AE1743B4
:100C6300E68022E4F5A775A44275D43F2275A571E9
:100C730075F27F75D58E2275A60875A72075CC08E9
:100C830022758E0275890243881022120B5975DA78
:100C930042120B6A22120B5975DB42120B6A2212A3
:100CA3000B5975DC42120B6A22E50A120003020794
:100CB300FF7597DE7597AD2275E68875A86022E407
:100CC300F5A9F5A92275D108220020505020C06053
:100CD300601040000000000000702070F810F83031
:100CE300F870700000080080707070F070E0F8F821
:100CF300708870388880888870F070F078F88888F9
:100D0300888888F870007020004000800008003058
:100D13000080201080600000000000000040000000
:100D230000000000302060000000000000002050A0
:100D33005078C89020202020200000000088608880
:100D430010308040088888606010004088088888D8
:100D530088908080888820109080D88888888888A8
:100D630080208888888888084000105000200080F0
:100D73000008004878800000802000000000000088
:100D83000040000000000000402010400000000070
:100D930000002050F88010A0404010A82000000060
:100DA300089820082050F080108888606020F82080
:100DB300080888888088808080882010A080A8C840
:100DC3008888888880208888885088104080108888
:100DD300001070B07068704088B060309020D0B060
:100DE30070F068B070E08888888888F8402010A880
:100DF30000000000000020005070204000401070F0
:100E0300F800F80010A82010109008F02070780067
:100E130000400010106888F08088F0F0B8F82010C7
:100E2300C080A8A888F088F070208888A820502067
:100E330040401000000008C8809888E088C820104F
:100E4300A020A8C8888898C88040888888508810BF
:100E5300802008100000000000000000F80840A8EF
:100E6300004010A82060000020C8202008F808884F
:100E7300408808606020F82020A8F8888088808057
:100E830088882010A08088988880A8A00820888857
:100E9300A850204040201000000078888088F84047
:100EA30078882010C020A88888F0788070408888CF
:100EB300A82078204020100000000000000000005F
:100EC30050F098900020202020200060408820408F
:100ED30088108888408810602010004000A8888807
:100EE30088908080888820909080888888809090DF
:100EF30008208850A88820804010100000008888AF
:100F03008888804008882090A0208888888008806E
:100F130008489850A85008404020100000000000E6
:100F230000002000502018680010400000400060BE
:100F3300807070F87010707040706000400800801E
:100F4300207088F070E0F8807088706088F8888876
:100F530070806888F0207020508820F87008700036
:100F6300FC0078F0707870407088706090708888AA
:100F730070800880F0306820508870F8302060005E
:100F8300000000000000000000000000000000005E
:100F9300000000000000000000000000000000004E
:100FA300000000000000000000000000000000003E
:100FB300000000000000000000000000000000002E
:100FC300000000000000000000000000000000001E
:100FD300000000000000000000000000000000000E
:090FE30000000000000000000005
:00000001FF
